:020000040000FA
:100000000C94B9010C94EA010C94EA010C94EA01F5
:100010000C94EA010C94EA010C94EA010C94EA01B4
:100020000C94EA010C94EA010C94EA010C94EA01A4
:100030000C94EA010C94EA010C94EA010C94EA0194
:100040000C94EA010C94EA010C94EA010C94EA0184
:100050000C94EA010C94EA010C94EA010C94EE145D
:100060000C94EA010C9462150C9438150C94EA0176
:100070000C94EA010C94EA010C94EA010C94EA0154
:100080000C94EA010C94EA010C94EA010C94EA0144
:100090000C94EA010C94EA010C94EA010C94EA0134
:1000A0000C94EA010C94EA010C94EA010C94EA0124
:1000B0000C94EA010C94EA010C94EA010C94EA0114
:1000C0000C94EA010C94EA010C94EA010C94EA0104
:1000D0000C94EA010C94EA010C94EA010C94EA01F4
:1000E0000C94EA010C9478020C943D060C94900256
:1000F0000C94A7060C9482020C9470020C940A04CF
:100100000C9438040C9455060C94C7130C945102AB
:100110000C9406040C94DD050C9473060C94AB044B
:100120000C94A5080C9486020C94BB020C94CE048B
:100130000C9433160C9402040C947E020C941E044E
:100140000C9448060C94FD020C9466040C948004F4
:100150000C94B2050C941F030C943F020C940304FE
:100160000C9459020C94D7070C941F060C94C102EE
:100170000C941E140C94A3050C945D020C946A025A
:100180000C94F6030C94BE020C9467140C94F806BD
:100190000C94A4030C9474020C94EE020C94570378
:1001A0000C942F060C9494060C943A020C9466025C
:1001B0000C9479050C9451040C9481060C94090458
:1001C0000C9400050C942A050C94EC050C944B043B
:1001D0000C94FA040C948C020C9460020C94A914F4
:1001E0000C9476060C944E040C9414060C941A1479
:1001F0000C941C140C9493080C94FF050C948A0620
:100200000C9469060C94C8050C9436080C94970657
:100210000C94C5050C9411030C94FD040C944D052D
:100220000C9432060C9455020C9458070C942C062E
:100230000C9496040C94F7030C9418140C94F50386
:100240000C9498080C9460060C94D3070C949304B7
:100250000C947906290900000B0900000E09000022
:100260001109000014090300190909006F090000B1
:100270005E090900510903006C0258025402030090
:100280000500010000002200250028002B002E00A0
:100290003100340002010000050108010B010505D1
:1002A0000505070508080808020202020A0A0808EC
:1002B000040404040101010101010101030303031A
:1002C00003030303040707070C0C0C0C0C0C0C0CA9
:1002D0000202020206060606060606060B0B0B0BBA
:1002E0000B0B0B0B010210202008081020401020DF
:1002F00040800201020108040201010204081020EA
:1003000040808040201008040201800402018040E7
:100310002010080402010804020101020408102050
:100320004080010204081020408000000A0B0209EE
:100330000C0D0E080703040100000000000000007F
:1003400000000000000000000000000000000000AD
:10035000000000000000121110000000000000006A
:10036000000000000000000000000000000000008D
:10037000331611241FBECFEFDFEFDEBFCDBF00E08D
:100380000CBF15E0A0E0B2E0E2E9FDE300E00BBF46
:1003900002C007900D92AC34B107D9F729E0ACE464
:1003A000B5E001C01D92AE37B207E1F711E0C9EB2D
:1003B000D1E000E006C021970109802FFE010E94D4
:1003C000C51CC83BD10780E00807A9F70E94D617D3
:1003D0000C94C71E0C940000409168085091690865
:1003E000E8E6F7E081E090E04230510530F4109209
:1003F0006908109268080895C901218121939C0120
:100400002F5F3F4F42175307B9F7909369088093C6
:1004100068080895282F30E0F901E65DFC4F9491BB
:10042000F901EC51FD4F449122563D4FF9012491C1
:10043000222309F435C0992311F191509231F8F437
:10044000E92FF0E08827E85DFD4F8F4F0C94C51C25
:1004500059025D023A02510255023F0260026602F1
:100460006A027002740278027E0282023F028602F1
:100470008C029002809180008F7780938000E22F21
:10048000F0E0EE0FFF1FEC57FD4FA591B4918FB731
:10049000F894EC91611148C040954E234C938FBF66
:1004A0000895809180008F7DE8CF80918000877FC4
:1004B000E4CF84B58F7784BDE2CF84B58F7DFBCF49
:1004C0008091B0008F778093B000D9CF8091B00039
:1004D0008F7DF9CF809190008F7780939000CFCF60
:1004E000809190008F7DF9CF80919000877FF5CF2C
:1004F0008091A0008F778093A000C1CF8091A00051
:100500008F7DF9CF8091A000877FF5CF809120016A
:100510008F7780932001B3CF809120018F7DF9CF19
:1005200080912001877FF5CF4E2BB8CF3FB7F8944D
:100530008091640790916507A0916607B091670765
:1005400026B5A89B05C02F3F19F00196A11DB11D2E
:100550003FBFBA2FA92F982F8827BC01CD01620F6A
:10056000711D811D911D42E0660F771F881F991F25
:100570004A95D1F7089581E090E008958E5B9F4FF2
:100580000895AF92BF92CF92DF92EF92FF920F93B6
:100590001F93CF93DF936C017B018B01040F151F19
:1005A000EB015E01AE18BF08C017D10759F0699181
:1005B000D601ED91FC910190F081E02DC6011995D5
:1005C000892B79F7C501DF91CF911F910F91FF9092
:1005D000EF90DF90CF90BF90AF900895FC01538DC6
:1005E000448D252F30E0842F90E0821B930B54170D
:1005F00010F0CF96089501970895FC01918D828D9A
:10060000981761F0A28DAE0FBF2FB11D5D968C9132
:10061000928D9F5F9F73928F90E008958FEF9FEF71
:100620000895FC01918D828D981731F0828DE80F2D
:10063000F11D858D90E008958FEF9FEF0895FC01E7
:10064000918D228D892F90E0805C9F4F821B9109B4
:100650008F73992708958AE698E00E941F0321E08E
:10066000892B09F420E0822F0895FC01A48DA80FA6
:10067000B92FB11DA35ABF4F2C91848D90E00196E4
:100680008F739927848FA689B7892C93A089B18904
:100690008C91837080648C93938D848D981306C0A5
:1006A0000288F389E02D80818F7D80830895EF9209
:1006B000FF920F931F93CF93DF93EC0181E0888F1C
:1006C0009B8D8C8D98131AC0E889F989808185FFEC
:1006D00015C09FB7F894EE89FF896083E889F9898E
:1006E00080818370806480839FBF81E090E0DF9190
:1006F000CF911F910F91FF90EF900895F62E0B8DE3
:1007000010E00F5F1F4F0F731127E02E8C8D8E119D
:100710000CC00FB607FCFACFE889F989808185FF04
:10072000F5CFCE010E943503F1CFEB8DEC0FFD2FFD
:10073000F11DE35AFF4FF0829FB7F8940B8FEA89BF
:10074000FB8980818062CFCFCF93DF93EC01888DCE
:100750008823B9F0AA89BB89E889F9898C9185FD3C
:1007600003C0808186FD0DC00FB607FCF7CF8C91CA
:1007700085FFF2CF808185FFEDCFCE010E9435034A
:10078000E9CFDF91CF91089580E090E0892B29F0A7
:100790000E942B0381110E94000080E090E0892BD1
:1007A00049F080E090E0892B29F00E94000081113F
:1007B0000E94000080E090E0892B49F080E090E00A
:1007C000892B29F00E94000081110E94000080E026
:1007D00090E0892B49F080E090E0892B29F00E947D
:1007E000000081110C940000089508950895FB0104
:1007F0001082118212821382FA01108211821282F7
:1008000013820895089590E080E0089590E080E0DC
:100810000895089583E195E00895282F8EE792E0EA
:10082000A0E0BB2730E0220F331F820F931FA11DD2
:10083000B11DABBFFC01879196910895CF93DF93D3
:1008400000D01F92CDB7DEB7FB014081518162819C
:100850007381FC012481211104C040835183628390
:1008600073830F900F900F900F90DF91CF910895A9
:10087000FC018481882351F085819681A781B08510
:10088000FB0180839183A283B3830895808191814A
:10089000A281B381F5CFFC0114820895FC0114827A
:1008A0000895CF93DF93FC01EB0188819981AA81A0
:1008B000BB8121E0248385839683A783B0878083CF
:1008C0009183A283B383DF91CF910895CF93DF9378
:1008D00000D01F92CDB7DEB7FB014081518162810C
:1008E0007381FC012481211104C040835183628300
:1008F00073830F900F900F900F90DF91CF91089519
:10090000FC018481882351F085819681A781B0857F
:10091000FB0180839183A283B383089580819181B9
:10092000A281B381F5CFFC0114820895CF93DF93A8
:10093000FC01EB0188819981AA81BB8121E024839C
:1009400085839683A783B08780839183A283B383B3
:10095000DF91CF910895FC01DB01808581111DC0DD
:100960007C9111966C91119712965C911297139647
:100970004C91139714963C91149715962C911597BA
:1009800016969C91169717968C917083618352836B
:10099000438334832583968387830895FC01DB0199
:1009A00080858823F1F0718562855385448535857E
:1009B0002685978580897C9311966C931197129662
:1009C0005C93129713964C93139714963C93149739
:1009D00015962C93159716969C93169717968C93AD
:1009E000089570816181528143813481258196818E
:1009F0008781E1CFFC0110860895FC0110860895DF
:100A0000FC01DB017C9111966C91119712965C911F
:100A1000129713964C91139714963C911497159630
:100A20002C91159716969C91169717968C91A1E08C
:100A3000A087718762875387448735872687978782
:100A4000808B7083618352834383348325839683B1
:100A500087830895FC01DB01808581111DC07C9195
:100A600011966C91119712965C91129713964C9176
:100A7000139714963C91149715962C9115971696EA
:100A80009C91169717968C91708361835283438350
:100A900034832583968387830895FC01DB01808559
:100AA0008823F1F0718562855385448535852685D7
:100AB000978580897C9311966C93119712965C931D
:100AC000129713964C93139714963C93149715967C
:100AD0002C93159716969C93169717968C930895BA
:100AE0007081618152814381348125819681878122
:100AF000E1CFFC01DB017C9111966C91119712966C
:100B00005C91129713964C91139714963C911497FD
:100B100015962C91159716969C91169717968C9171
:100B2000A1E0A0877187628753874487358726872E
:100B30009787808B708361835283438334832583BB
:100B4000968387830895FC01248121110AC0FB014B
:100B50004081518162817381FC01408351836283B2
:100B600073830895FC018481882351F085819681E7
:100B7000A781B085FB0180839183A283B38308950D
:100B800080819181A281B381F5CFFC011482089507
:100B9000CF93DF93FC01EB0188819981AA81BB810E
:100BA00021E0248385839683A783B0878083918304
:100BB000A283B383DF91CF910895FC012481211199
:100BC0000AC0FB014081518162817381FC01408335
:100BD0005183628373830895FC018481882351F0DB
:100BE00085819681A781B085FB0180839183A28353
:100BF000B383089580819181A281B381F5CFCF9392
:100C0000DF93FC01EB0188819981AA81BB8121E0FE
:100C1000248385839683A783B08780839183A2836F
:100C2000B383DF91CF910895FC012281211106C089
:100C3000FB0120813181FC01318320830895FC0177
:100C40008281882331F083819481FB0191838083A9
:100C5000089580819181F9CFFC0112820895FC01F1
:100C600012820895FC01DB018D919C9121E0228389
:100C700094838383918380830895FC0122812111D1
:100C800006C0FB0120813181FC013183208308955E
:100C9000FC018281882331F083819481FB0191835F
:100CA0008083089580819181F9CFFC01DB018D91D2
:100CB0009C9121E022839483838391838083089590
:100CC000FC012181211104C0FB012081FC01208352
:100CD0000895FC018181882321F08281FB018083BA
:100CE00008958081FBCFFC0111820895FC011182DF
:100CF0000895FC01DB018C9191E0918382838083D4
:100D00000895FC012181211104C0FB012081FC0117
:100D100020830895FC018181882321F08281FB01D9
:100D2000808308958081FBCFFC0111820895FC012E
:100D3000DB018C9191E09183828380830895FC0193
:100D40008181882311F08281089580810895EF9236
:100D5000FF920F931F93CF93DF9300D0CDB7DEB7F1
:100D60008C01DC011796ED91FC9184818823D9F1E7
:100D70006581768187819085FF24F39420E030E0BF
:100D800040EA52E40E947A1C87FDF12CF9821A8213
:100D90001B827801B2E0EB0EF11CCE0101960E949D
:100DA0009F06F8019381911101C08283D8011596A5
:100DB0000D911C91C7010E949F0689831A821B8294
:100DC000CE0101960E949F06F8019181911101C008
:100DD00080830F900F900F90DF91CF911F910F9113
:100DE000FF90EF9008956081718182819381C4CFDB
:100DF000DF92EF92FF920F931F93CF93DF93CDB7C4
:100E0000DEB72F970FB6F894DEBF0FBECDBF8C01B3
:100E100008960E949F068F8318861986CE01079632
:100E20000E949F06DD24D3948D258A871B861C860D
:100E3000F801818D928D0E949F06F82EC8010596BB
:100E40000E949F06E82EC80102960E949F068E29E6
:100E500089831A821B82CE0101960E949F06FD247F
:100E6000F822FC821D821E82CE0104960E949F06FB
:100E7000F82ECE010A960E949F068F218D871E862E
:100E80001F86CE010D960E949F06F8019681911152
:100E900001C085832F960FB6F894DEBF0FBECDBF7D
:100EA000DF91CF911F910F91FF90EF90DF90089508
:100EB000CF93DF93EB010E949F068883DF91CF9150
:100EC00008950F931F93833038F060E070E080E066
:100ED00090E01F910F9108950EE712E020E0332774
:100EE00090E0880F991FB0E0A0E0080F191F2A1F9B
:100EF0003B1F2BBFF8010791169160177107D0F4C3
:100F000008E712E020E03327800F911FA21FB31FD4
:100F1000ABBFFC0187919691660F771F660F771F15
:100F2000680F791FFB0125913491FB013296849162
:100F3000B901CECF80E060E070E0CACF0E946107C7
:100F4000672B59F0853148F499E0899FF00111240D
:100F5000E25FFB4F808590E0089590E080E0089587
:100F60000F931F93CF938A010E946107E82FCB0153
:100F70000097B1F0E531A0F429E0E29FF0011124DF
:100F8000E25FFB4FC085CC2359F00480F581E02D52
:100F9000B80119958C2F90E0CF911F910F91089572
:100FA00090E080E0F9CF9E5FFC0110820895EF92FF
:100FB000FF920F931F93CF93DF93CDB7DEB7CC5F34
:100FC000D2400FB6F894DEBF0FBECDBFFB0130811B
:100FD0003F3708F03EE7FB01BE016F5F7D4FDB014D
:100FE00020E0231751F0428151814527542745279E
:100FF0004D935D932F5F3296F4CF30E0DE01119672
:1010000050E040E07D014217530748F4FB01019195
:101010001191BF010D931D934F5F5F4FF4CFD90125
:10102000AA0FBB1FAE0DBF1D1D921C92DC01BE5F3F
:1010300041E04C93C150DE4F39832883CF5FD140CC
:10104000119680E092E0F70101900D920197E1F78F
:10105000C450DD4F0FB6F894DEBF0FBECDBFDF9199
:10106000CF911F910F91FF90EF900895EF92FF9213
:101070000F931F93CF93DF93CDB7DEB7CC5FD240F2
:101080000FB6F894DEBF0FBECDBFFB0130813F37F6
:1010900008F03EE7FB01BE016F5F7D4FDB0120E002
:1010A000231751F0428151814527542745274D93FD
:1010B0005D932F5F3296F4CF30E0DE01119650E061
:1010C00040E07D014217530748F4FB010191119163
:1010D000BF010D931D934F5F5F4FF4CFA901440FE4
:1010E000551F4E0D5F1DFA0111821082C150DE4F57
:1010F00039832883CF5FD14020E032E0F701DC0163
:1011000001900D9221503040D9F7C450DD4F0FB6F9
:10111000F894DEBF0FBECDBFDF91CF911F910F912D
:10112000FF90EF9008958F5F9E4FFC01108208950D
:10113000FC012181211108C021E0FB013081311126
:1011400001C020E0FC0120830895FC0181E0DB0167
:101150009C91911101C080E091E091838283808312
:10116000089520916807209530E0F901E25FFC4F77
:1011700090819095225F3D4FD9018C91409150050F
:101180005091510542505109E8E6F7E031969F0130
:10119000285637402417350770F420819227292FCD
:1011A00030E0D901A25FBC4F9C919827225F3D4F50
:1011B000D9018C91EBCF089523E030E030935105B5
:1011C00020935005E8E6F7E090913107908380582E
:1011D0008183628308950F931F93582F577001E006
:1011E00010E020E030E004C0000F111F221F331F69
:1011F0005A95D2F723E0969587952A95E1F7992796
:10120000E0913B07F0913C07662321F0E091410714
:10121000F0914207E80FF91F8081442329F0082B41
:1012200000831F910F91089500950823F9CF2F9205
:101230003F924F925F926F927F928F929F92AF9266
:10124000BF92CF92DF92EF92FF920F931F93CF93B3
:10125000DF93CDB7DEB7C655D1090FB6F894DEBF20
:101260000FBECDBF10E000E0F801EE0FFF1FEF53FF
:10127000F94F0190F081E02D309749F041E08081F5
:10128000811101C040E060E0C8010E94EB080F5FDF
:101290001F4F0833110541F7E0903207F0903307F4
:1012A00021E836E02D963FAF2EAF2D978701005CE9
:1012B0001F4FF701D9018D919D919D01009729F054
:1012C000DC018D919C919183808332960E171F07CC
:1012D00089F7D12CC12CF601EE0FFF1FEF5EF94FFD
:1012E0000190F081E02D309749F041E0808181113B
:1012F00001C040E061E0C6010E94EB08BFEFCB1ADD
:10130000DB0AE8E3CE16D10431F741ED55E0E09178
:101310003E07F0913F079F01205C3F4FDA018D911E
:101320009D91AD01009729F0DC018D919C919183F5
:1013300080833296E217F30789F7E9EAF5E02F9602
:10134000FFAFEEAF2F97F80128E6E20EF11C29EA75
:1013500035E0D9018D919D919D01009729F0DC0127
:101360008D919C91918380833296EE16FF0689F7CA
:10137000E1E8F5E06196FFAFEEAF6197E0913507E8
:10138000F09136079F01205B3F4F01E815E0D8013F
:101390008D919D918D01009749F0DC014D915D91FA
:1013A0006D917C9140835183628373833496E217FD
:1013B000F30769F7E9E5F5E02B96FFAFEEAF2B9762
:1013C000E0913807F09139079F0120563F4F89E59A
:1013D00095E0DC01CD90DD90CD01C114D104F1F098
:1013E000D601EC901196FC90119712960C911297E1
:1013F00013961C91139714967C91149715966C91E3
:10140000159716965C91169717964C91E082F1828B
:1014100002831383748365835683478338962E171C
:101420003F07B9F68091570590915805DC01ED9181
:10143000FC910084F185E02D199518161906B4F574
:1014400080916808909169088F3F910509F070F5C7
:101450008091570590915805DC01ED91FC91028433
:10146000F385E02D19952091680830916908A9014C
:101470004F5F5F4F50936908409368082859384F71
:10148000F90180832FB7F8948091600790916107EC
:10149000A0916207B09163072FBF80934C05909392
:1014A0004D05A0934E05B0934F05BCCF4091680801
:1014B000509169084115510509F466C0909168077B
:1014C00080913107981719F00E94EC01EFCF42305C
:1014D000510508F461C18091690764E0862E912C62
:1014E000A12CB12C813409F168F4813030F08730BF
:1014F000B8F08F50823008F419C188248A94982C4F
:10150000540113C0E9E08E2E912CA12CB12C833410
:1015100061F008F42FC1843409F416C1853469F7E9
:10152000F8E08F2E912CA12CB12C61E08616960646
:10153000A104B10448F681149104A104B10429F076
:1015400084014815590508F02BC12FB7F8948091F4
:10155000600790916107A0916207B09163072FBF68
:1015600040914C0550914D0560914E0570914F058D
:10157000841B950BA60BB70B0997A105B10520F0AD
:10158000109269081092680840913B0750913C07FF
:1015900030E020E0F901EE0FFF1FEF53F94F01900B
:1015A000F081E02D309799F0D90183E0B695A795A9
:1015B0008A95E1F7A40FB51F8C9190E0622F6770B8
:1015C00002C0959587956A95E2F7817080832F5FB9
:1015D0003F4F28333105F1F6809132079091330760
:1015E000BC01605C7F4FDC012D96EEADFFAD2D9709
:1015F000219131912D96FFAFEEAF2D972115310539
:1016000031F04D915C911197F9015183408312960D
:101610006A177B0749F7FB0188599F4F2F96AEAD9C
:10162000BFAD2F974D915D912F96BFAFAEAF2F9766
:101630004115510529F020813181DA012D933C9328
:1016400032968E179F0751F7E0913507F0913607D4
:10165000CF01805B9F4F6196AEADBFAD61972D917D
:101660003D916196BFAFAEAF61972115310551F045
:101670004081518162817381D9014D935D936D9356
:101680007C93139734968E179F0729F7E0913807BC
:10169000F0913907CF0180569F4F2B96AEADBFAD6D
:1016A0002B97ED90FD902B96BFAFAEAF2B97E1142B
:1016B000F104F1F0008111817281638154814581CF
:1016C00036812781D7010C9311961C93119712969E
:1016D0007C93129713966C93139714965C931497BC
:1016E00015964C93159716963C93169717962C9330
:1016F00038968E179F0789F6CA5ADF4F0FB6F894AF
:10170000DEBF0FBECDBFDF91CF911F910F91FF9034
:10171000EF90DF90CF90BF90AF909F908F907F9091
:101720006F905F904F903F902F90089547305105F4
:1017300098F180906E07912CB12CA12CF9E08F0EBE
:10174000911CA11CB11CF1CE4430510528F120910F
:101750006A0730916B07322723273227A3E0B0E0D6
:101760000E94CD1C4B015C0126E0820E911CA11C45
:10177000B11CDBCE4830510578F080906E07909018
:101780006F07982489249824B12CA12C3AE0830E69
:10179000911CA11CB11CC9CE812C912C5401C5CE29
:1017A000C09069078FEB8C0D853000F19092510548
:1017B000809250050E94B108B501A4014250510920
:1017C000610971094859584FDA012C91B1E08B1A1F
:1017D0009108A108B108F401E859F84F3081232796
:1017E000322723272817390709F06ECE0250110936
:1017F000109351050093500560906A0770906B0735
:10180000762467247624D0906A0700916C071091A3
:101810006D07102701271027E0906B07F0906C07E9
:10182000FE24EF24FE24B0906D07EFE0CE1609F4FD
:10183000B7C5EC15D8F1F3E0CF1609F4A0C1FC153B
:1018400068F021E0C21609F434C432E0C31609F48A
:10185000BAC461E070E08C2D90E025C045E0C4166C
:1018600009F47FC5C41608F437C556E0C512F1CF98
:10187000209134078091370790E0880F991FE22F5D
:10188000F0E08E0F9F1F40913A07B4E04B9FA001FC
:101890001124480F591F6416750608F463C062E0EE
:1018A00070E086E090E00E94DC0869C062E4C61641
:1018B00009F419C76C1558F170E1C71609F482C212
:1018C00081E4C812C6CFC092690783E080936A079B
:1018D0008EE780936B0780E00E940D0490936C0765
:1018E00080936D0781E00E940D0490936E078093B2
:1018F0006F0782E00E940D04909370078093710738
:101900008AE090E0909351058093500538C094E4AC
:10191000C91609F46FC6C91608F4F7C5A5E4CA12BA
:1019200098CFC09269078EE780936A0781E2EBE166
:10193000F5E09E012F5F3F4FD90101900D928A95EE
:10194000E1F7ABE6B7E0A901CA01821B930BFA01EC
:101950006191AF01FD01E856F740662309F40CC719
:101960006D93F2CF6E167F06D8F4660C771CE0916B
:101970003207F0913307E60DF71D11830083809144
:1019800050059091510502968130914008F466C54A
:101990008091690764E070E090E00E94DC085EC519
:1019A00068167906F0F5A80170E060E080913507CF
:1019B0009091360760FC1CC093012E1B3F0BF90170
:1019C000EE0FFF1FEC7FF370E80FF91F808191810C
:1019D000A281B381AA27BB27BA0155274427842BAC
:1019E000952BA62BB72B80839183A283B383C7CF7C
:1019F000E095F095E60DF71DEE0FFF1FEC7FF370FD
:101A0000E80FF91F008111812281338100271127FE
:101A1000042B152B262B372B008311832283338332
:101A2000AECF9301237033274801B12CA12CC12CD8
:101A3000D12C7601E0913807F09139072115310555
:101A400049F5681A790A660C771C38EF632237E08B
:101A50007322E60DF71D5080618072801381B4817E
:101A6000A581940140E050E060E070E080E090E00B
:101A700000E30E943B1D25292083632A6182742A8A
:101A80007282152B1383B62BB483A72BA583868371
:101A9000978375CF2130310541F54FEF641A740AF1
:101AA000681A790A660C771C58EF652257E0752290
:101AB000E60DF71D5080618072801381B681A78189
:101AC0009401A501B601C70100E20E943B1D522A04
:101AD0005082632A6182742A7282152B1383648375
:101AE00075838B2B86839A2BD3CF2230310529F532
:101AF00062E0660E711C681A790A660C771C78EF32
:101B0000672277E07722E60DF71D508061807480B0
:101B10001581B681A7819401A501B601C70100E135
:101B20000E943B1D522A5082632A61824283538362
:101B3000762A7482172B1583D4CFA3E06A0E711C0A
:101B4000681A790A660C771CB8EF6B22B7E07B2223
:101B5000E60DF71D5281438134812581968187816D
:101B6000808291825A2952834B2943833C293483B2
:101B70002D2925839E2996838F29878300CFC8012D
:101B8000019763E070E08D379105C8F44301800E42
:101B9000911E20913407E0913707F0E0EE0FFF1F10
:101BA000E20FF11D80913A0734E0839FC0011124B8
:101BB0008E0F9F1F8816990628F062E070E083E080
:101BC00090E071CE000F111F0D5F1F4F1093510554
:101BD0000093500538E6E32E37E0F32ED701119637
:101BE000CD01885697408017910710F41C92F7CFCB
:101BF00083E080936907035000936A07C090380719
:101C0000D0903907A0903507B0903607A0913207E1
:101C1000B0913307BEAFADAFA22FB0E02796BFAFF4
:101C2000AEAF279783E090E01C012E1A3F0A2D01EA
:101C3000409450948614970409F4A1CE2796AEAD33
:101C4000BFAD27976A167B0660F49301220F331FFE
:101C5000ADADBEAD2A0F3B1FD9018C9111963C91C1
:101C60001CC06E167F0680F560FC24C0C301279659
:101C7000AEADBFAD27978A1B9B0B880F991F8C7F3A
:101C800093708A0D9B1DDC014D915D916D917C914E
:101C9000AB0166277727842F352FD70113963C9306
:101CA000139714968C93B2E0EB0EF11C2FEF621A8F
:101CB000720AC0CF9201260D371D220F331F2C7FD1
:101CC00033702A0D3B1DC8CF830103701127011506
:101CD000110521F583010E1B1F0B000F111F087F3B
:101CE00017700C0D1D1DD8012C9111963C91119768
:101CF00012964C91129713965C91139714966C91CF
:101D0000149715967C91159716968C9116971796A1
:101D10009C9100E30E94561D822FBFCF0130110518
:101D200011F50E1B1F0B060D171D000F111F087F4D
:101D300017700C0D1D1DD8012C9111963C91119717
:101D400012964C91129713965C91139714966C917E
:101D5000149715967C91159716968C911697179651
:101D60009C9100E2D7CF0230110511F50E1B1F0B1D
:101D7000060D171D000F111F087F17700C0D1D1D7C
:101D8000D8012C9111963C91119712964C91129773
:101D900013965C91139714966C91149715967C91F9
:101DA000159716968C91169717969C9100E1B2CFD5
:101DB0009101260D371D220F331F287F37702C0D00
:101DC0003D1D4ACFC80101978B37910540F4209102
:101DD0006E07C801880F991F2817190629F063E0BC
:101DE00070E080E190E05FCDD301A00FB11F279696
:101DF000BFAFAEAF279720903407A0913707B0E070
:101E0000AA0FBB1F312CA20DB31D80913A07E4E04D
:101E10008E9FC00111248A0F9B1F2796EEADFFAD48
:101E20002797E817F90718F062E070E0DACF86E04C
:101E300090E09093510580935005C092690770928D
:101E40006A0760926B0710926C0700936D07E09031
:101E50003807F0903907E0913507F0913607299659
:101E6000FFAFEEAF2997E0913207F0913307639609
:101E7000FFAFEEAF639728E6422E27E0522E83E0B5
:101E800090E0FC01EA1BFB0B6596FFAFEEAF659798
:101E9000F101E095F0956796FFAFEEAF6797279653
:101EA000EEADFFAD27976E167F0609F4D7C2F2019B
:101EB00047818085142F082F6214730490F4F30176
:101EC000EE0FFF1F63962EAD3FAD6397E20FF31F3A
:101ED000118300835FEF651A750A62E0460E511C9C
:101EE000DECF6A167B06D8F5A80170E060E060FCE2
:101EF0001FC0F301E219F309EE0FFF1FEC7FF3702F
:101F000029968EAD9FAD2997E80FF91F00811181A9
:101F10002281338122273327BA0155274427402BBA
:101F2000512B622B732B4083518362837383D2CFF7
:101F30006796EEADFFAD6797E60DF71DEE0FFF1F3D
:101F4000EC7FF37029962EAD3FAD2997E20FF31F7A
:101F5000008111812281338100271127E0CFF30115
:101F6000E370FF27980150E040E060E070E0CB01B3
:101F70002DAF3EAF4FAF21965FAF219722966FAF47
:101F8000229723967FAF239724968FAF2497259689
:101F90009FAF2597309739F5F301EA1BFB0BEE0F46
:101FA000FF1FE87FF770EE0DFF1D9080A180B280CB
:101FB000C380D480158140E050E060E070E080E0B4
:101FC00090E000E30E943B1D292920833A293183B8
:101FD0004B2942835C295383D62AD482172B15833D
:101FE0008683978377CFE130F10549F5EA1BFB0B38
:101FF000E60DF71DEE0FFF1FE87FF770EE0DFF1DDA
:102000009080A180B280C380D68017812DAD3EAD77
:1020100040E050E060E070E080E090E000E20E948C
:102020003B1D292920833A2931834B294283C52A24
:10203000C382648375838D298683912BD2CFE2304E
:10204000F10531F5EA1BFB0BE60DF71DEE0FFF1F47
:10205000E87FF770EE0DFF1D9080A180B480C580F1
:10206000D68017812DAD3EAD40E050E060E070E0DD
:1020700080E090E000E10E943B1D292920833A295D
:10208000318342835383B62AB482C72AC582D3CF11
:102090006596EEADFFAD6597E60DF71DEE0FFF1FE0
:1020A000E87FF770EE0DFF1D3DAD30834EAD4183EF
:1020B00011CFC8010197803D974028F063E070E0A0
:1020C00081E090E0F0CB20913D07C301800F911F8C
:1020D00062E070E02817190698F3C80123E096958E
:1020E00087952A95E1F7980127703327232B91F4E0
:1020F00003969093510580935005809150059091DF
:102100005105E8E6F7E08130A1E09A0728F064E0A5
:1021100070E0D6CF0496EDCF31969F012856374018
:102120002817390710F41082F7CF91E090936907D0
:10213000835080936A07A0903B07B0903C0770E003
:1021400060E020E0C12CD12C7601C3941601270158
:10215000022E04C0220C331C441C551C0A94D2F7D6
:10216000FB0143E0F695E7954A95E1F7E559F84F0D
:102170003081A301A3E056954795AA95E1F74F71E9
:1021800055274A0D5B1DDA014C9150E0B62DB77012
:1021900002C055954795BA95E2F7822D40FF0FC0D2
:1021A000832B80832F5F283009F420E0EFEF6E1A35
:1021B0007E0A6F5F7F4F0617170741F6E0CB8095C9
:1021C00038233083EFCFC801019763E070E0803D92
:1021D000974030F520914307C301800F911F62E0C3
:1021E00070E028171906E0F0C80133E0969587954E
:1021F0003A95E1F7980127703327232BA1F4039632
:102200009093510580935005809150059091510510
:10221000E8E6F7E0813021E0920738F064E070E012
:1022200082E090E040CB0496EBCF31969F01285698
:1022300037402817390710F41082F7CF92E09093B7
:102240006907835080936A07609141077091420744
:1022500050E040E0B12CC12CD12C7601C394160182
:1022600027010B2C04C0220C331C441C551C0A945F
:10227000D2F7FA0183E0F695E7958A95E1F7E559FB
:10228000F84FA080930193E0369527959A95E1F752
:10229000260F372F311DD9012C9130E0B62DB770A4
:1022A00002C035952795BA95E2F7822D20FF10C020
:1022B0008A298083B394E8E0BE1201C0B12CFFEFFD
:1022C0006F1A7F0A4F5F5F4F0417150741F657CB10
:1022D0008095A822A082EECFC801019763E070E04C
:1022E0008D37910550F420914007C301800F911F55
:1022F0002817190628F462E070E084E090E0D3CA61
:10230000C801880F991F039690935105809350053B
:10231000E8E6F7E0DF0111969D01285637402817BF
:10232000390710F41C92F7CF94E09093690783501B
:1023300080936A07660C771CA0913E07B0913F0717
:10234000A60DB71D0150110932960F3F100709F471
:1023500016CB8C9111969C91119712969183828342
:10236000F1CF01153FEF130729F063E070E001158D
:10237000110549F480913D078150990B8615970509
:1023800028F462E070E085E090E08DCA41E001153C
:102390001F4F09F040E060E0C3010E94EB08EFCA64
:1023A0009801E3E036952795EA95E1F7822FA80199
:1023B00047705527452B11F081E0820F980121507D
:1023C0003109203B374020F490916E07981729F08F
:1023D00063E070E08FE090E066CA20913D07C301A2
:1023E000800F911F2817190618F462E070E0F2CFF1
:1023F00086E090E090935105809350058FE08093A4
:10240000690770926A0760926B0710936C070093DC
:102410006D07F12CE12CD12CF70173E0F695E795CF
:102420007A95E1F7E859F84F478150E00D2C02C04A
:10243000559547950A94E2F7417060E0C3018E0D0F
:102440009F1D0E94EB08D39478E0D71201C0D12CD5
:102450008FEFE81AF80A0E151F05F1F600915005E6
:1024600010915105780122E0E20EF11CF092510525
:10247000E09250050E94B108F801E859F84F9083A6
:1024800081838091560587FD11C061E00E940A0298
:1024900080915205909153058230910538F0880F54
:1024A000991F880F991F05970197F1F7809157059C
:1024B00090915805DC01ED91FC910280F381E02DB3
:1024C000A70168E677E01995809157059091580526
:1024D000DC01ED91FC910680F781E02D199580914A
:1024E0005205909153058230910538F0880F991F5D
:1024F000880F991F05970197F1F78091560587FD81
:102500003FC860E00E940A023BC892E09D1508F4B3
:1025100066C0A0906D07B0906E078D2D0E940D04CF
:10252000009709F45CC0E816F90608F058C0BA2410
:10253000AB24BA24A816B90608F051C0AE14BF04E3
:1025400008F44DC0370163E7862E67E0962E10E051
:1025500000E0B3018D2D0E949E079C01200F311FCA
:10256000255F3F4F2130314098F4892B59F0A40169
:10257000B3018D2D0E94B007009721F0880E991E9F
:10258000080F191FC30101967301A816B90628F593
:10259000C8010B96909351058093500583E4809376
:1025A00069078EE780936A07F0926B07E0926C07E9
:1025B00080914E0790914F0720915007309151071D
:1025C00030936D0720936E0790936F078093700789
:1025D0001093710700937207D2C93C01BACF83E010
:1025E00090E0909351058093500583E480936907B0
:1025F00081E876C0B5E16B16710408F068C0C301CC
:10260000880F991F860D971DACE6B7E08E010F5F0E
:102610001F4FF8019F01201B310B2817390718F4B1
:102620002D912193F7CFB12CA12C512CD12CC12C61
:102630004BE0E42EF12C6A147B0431F1F801408068
:1026400081808281982C882EB401842D0E949E075F
:10265000009791F08E0D9F1D81309140A8F4A70145
:102660004859584FB401842D0E94B007009721F0BB
:10267000E80EF91EC80ED91E0D5F1F4F5A2C95018A
:102680002F5F3F4F5901D7CFF0925105E09250058F
:1026900084E4809369078EE780936A0710926B0742
:1026A00050926C0780914E0790914F0720915007F0
:1026B0003091510730936D0720936E0790936F0709
:1026C00080937007D0927107C092720758C983E057
:1026D00090E09093510580935005C092690782E87D
:1026E00080936A074CC900916E0710916F071027FD
:1026F00001271027093F110548F083E090E09093EF
:10270000510580935005C092690772CFB7018D2D96
:102710000E946107282FCB01009751F1253140F528
:1027200030E049E0429FF001439FF00D1124E25F49
:10273000FB4FBB20C1F020852223E1F020171106BA
:1027400009F0C0F40190F081E02D60E777E0199581
:102750008EE723E030E0309351052093500592E45A
:1027600090936907BDCF0280F381E02D1995F0CFDA
:1027700081E8EFCF82E8EDCFE859F84F2DEA2083CA
:10278000FC01E859F84F2EED24830596BBC80F9342
:102790001F93CF93DF938B01FC01FE5F20812223E7
:1027A00051F19C012F5F3D4F22503E4FD9012D9199
:1027B0003C912F37310510F02EE730E0622FE80111
:1027C00028834081442311F08F5F9D4FFC01D80185
:1027D00080E0861790F49081329611969C93119721
:1027E000AF0142505109EA01998112969C931297C8
:1027F0008F5F1296EECF9C01D7CF220F331F2F5F32
:102800003F4F2D3F310579F04DEF50E0421B530B08
:1028100070E060E0C801820F931FDF91CF911F919C
:102820000F910C94C01EDF91CF911F910F910895CD
:102830000C942E1E0C942E1E0C942E1E0F931F9380
:10284000CF93DF93CDB7DEB7C150D1400FB6F89428
:10285000DEBF0FBECDBF8C01FB0140814F3708F0BA
:102860004EE750E0C050DF4F59834883C050D140FD
:102870006F5F7F4FCE0101960E94B71EC050DF4FA1
:10288000E881F981C050D14081E090E08C0F9D1F1C
:10289000E80FF91F1082F801EF5FFE4F81E080839F
:1028A000D801AE5FBE4F81E091E0FE01319601900C
:1028B0000D920197E1F7CF5FDE4F0FB6F894DEBFC0
:1028C0000FBECDBFDF91CF911F910F9108950F9350
:1028D0001F93CF93DF93CDB7DEB7C150D1400FB672
:1028E000F894DEBF0FBECDBF8C01FB0140814F3796
:1028F00008F04EE750E0C050DF4F59834883C05086
:10290000D1406F5F7F4FCE0101960E94B71EC0502D
:10291000DF4FE881F981C050D14081E090E08C0F19
:102920009D1FE80FF91F108281E091E0FE013196B2
:10293000D80101900D920197E1F7CF5FDE4F0FB6FE
:10294000F894DEBF0FBECDBFDF91CF911F910F91E5
:102950000895FF920F931F93CF93DF938B01FC0198
:10296000EF5FFE4F2081222319F19C012E5F3E4F25
:1029700021503F4FD901CD91DC91CF37D10510F0D7
:10298000CEE7D0E0FC2ED801CC93C11113C04EE7A6
:1029900050E04C1B5D0BCE01019670E060E0800FB3
:1029A000911FDF91CF911F910F91FF900C94C01E4A
:1029B0009C01DECF2081BC01222311F06E5F7E4F8F
:1029C000AE01C80101960E94B71E8EE7F812DFCF54
:1029D000DF91CF911F910F91FF9008951F920F9259
:1029E0000FB60F9211242F933F938F939F93AF9322
:1029F000BF938091600790916107A0916207B091A9
:102A0000630730915F0723E0230F2D3758F50196B8
:102A1000A11DB11D20935F0780936007909361070C
:102A2000A0936207B0936307809164079091650754
:102A3000A0916607B09167070196A11DB11D809313
:102A4000640790936507A0936607B0936707BF91EB
:102A5000AF919F918F913F912F910F900FBE0F904B
:102A60001F90189526E8230F0296A11DB11DD2CF05
:102A70001F920F920FB60F9211240BB60F922F9345
:102A80003F934F935F936F937F938F939F93AF93F6
:102A9000BF93EF93FF938AE698E00E943503FF917E
:102AA000EF91BF91AF919F918F917F916F915F91C6
:102AB0004F913F912F910F900BBE0F900FBE0F9033
:102AC0001F9018951F920F920FB60F9211240BB6FC
:102AD0000F922F938F939F93EF93FF93E0917A0838
:102AE000F0917B088081E0918008F091810882FD5F
:102AF0001DC09081809183088F5F8F73209184081F
:102B0000821741F0E0918308F0E0E659F74F958F86
:102B100080938308FF91EF919F918F912F910F9058
:102B20000BBE0F900FBE0F901F9018958081F2CFB3
:102B3000209172093091730940917409509175097F
:102B4000609176097091770980917809909179095F
:102B5000A1E00E947A1D209372093093730940937B
:102B6000740950937509609376097093770980937F
:102B70007809909379090E94861D31F410926F09AB
:102B800010927009109271092091670930916809BB
:102B90004091690950916A0960916B0970916C09C3
:102BA00080916D0990916E09A1E00E947A1D209399
:102BB0006709309368094093690950936A096093E3
:102BC0006B0970936C0980936D0990936E090E9454
:102BD000861DB1F480E090E0ACE5B2E480935E093C
:102BE00090935F09A0936009B09361091092620904
:102BF0001092630910926409109265091092660997
:102C0000209156093091570940915809509159091E
:102C100060915A0970915B0980915C0990915D09FE
:102C2000A1E00E947A1D20935609309357094093E2
:102C300058095093590960935A0970935B0980931E
:102C40005C0990935D090E94861D61F486E292E022
:102C5000909352098093510910925309109255098B
:102C600010925409089510926D0810926C0888EE25
:102C700093E0A0E0B0E080936E0890936F08A0937B
:102C80007008B09371088FEC94E090936B08809378
:102C90006A0885EC90E0909377088093760884EC3E
:102CA00090E0909379088093780880EC90E090937E
:102CB0007B0880937A0881EC90E090937D08809364
:102CC0007C0882EC90E090937F0880937E0886ECED
:102CD00090E090938108809380081092830810926E
:102CE000840810928508109286080E9498150E9408
:102CF00098150E9498150E9498152091720930919C
:102D00007309409174095091750960917609709129
:102D100077098091780990917909A1E00E947A1D44
:102D20002093720930937309409374095093750985
:102D30006093760970937709809378099093790965
:102D40000E94861D31F410926F0910927009109242
:102D50007109209167093091680940916909509182
:102D60006A0960916B0970916C0980916D0990916D
:102D70006E09A1E00E947A1D2093670930936809CB
:102D80004093690950936A0960936B0970936C09C9
:102D900080936D0990936E090E94861DB1F480E0C6
:102DA00090E0ACE5B2E480935E0990935F09A09354
:102DB0006009B09361091092620910926309109240
:102DC00064091092650910926609209156093091A4
:102DD0005709409158095091590960915A097091C9
:102DE0005B0980915C0990915D09A1E00E947A1DC8
:102DF0002093560930935709409358095093590925
:102E000060935A0970935B0980935C0990935D0904
:102E10000E94861D61F486E292E0909352098093AD
:102E2000510910925309109255091092540989E0E2
:102E300095E0909308098093070985EF94E09093BB
:102E40000A098093090910920B0910920C0910923B
:102E50000D0910920E0910920F091092100910928C
:102E6000110910921209109213098CE791E09093C6
:102E700015098093140910921609109218091092DE
:102E8000170980E090E0A8E4B1E4809319099093D9
:102E90001A09A0931B09B0931C0910921D091092E6
:102EA0001E0910921F0910922009109221092FE685
:102EB00039E0309323092093220981E0809324098B
:102EC000109225091092260941EE54E050932809EA
:102ED000409327091092290910922A0910922B0970
:102EE00030932D0920932C092EE539E030932F09DA
:102EF00020932E09809330091092310910923209E3
:102F000089E099E0909346098093450987E299E02A
:102F100090934809809347098CE395E09093340996
:102F2000809333091092350981EE8093360985EF3D
:102F30008093370985E080933809109239091092FF
:102F40003A0910923B0910923C0981E090E0A0E020
:102F5000B0E080933D0990933E09A0933F09B09360
:102F6000400985E499E0909342098093410982E009
:102F700090E0909344098093430982E495E0909314
:102F80004A098093490987E495E090934C0980931E
:102F90004B0983E399E090934E0980934D0981E0BA
:102FA00090E09093500980934F090895CF93DF9359
:102FB000CDB7DEB764970FB6F894DEBF0FBECDBFB6
:102FC000789484B5826084BD84B5816084BD85B504
:102FD000826085BD85B5816085BD80916E00816010
:102FE00080936E00109281008091810082608093B6
:102FF00081008091810081608093810080918000B8
:103000008160809380008091B10084608093B100E2
:103010008091B00081608093B000809191008260C7
:1030200080939100809191008160809391008091C4
:1030300090008160809390008091A10082608093D5
:10304000A1008091A10081608093A1008091A000E7
:1030500081608093A0008091210182608093210192
:103060008091210181608093210180912001816004
:103070008093200180917A00846080937A0080910F
:103080007A00826080937A0080917A0081608093D8
:103090007A0080917A00806880937A001092C10053
:1030A00020914F09309150093A8B298B80914D091D
:1030B00090914E099C8B8B8B9A8389831A861986F3
:1030C000312C212C712C812C912C1B821C82612C87
:1030D000512C412CA989BA89E985FA85AE17BF0719
:1030E00009F490C0A981BA8150968D919C91519715
:1030F000280E391E1296DC9012971396EC901397B7
:103100001496FC90149715960C91159716961C9191
:1031100016971796BC91E981FA81C084B1842D2D50
:103120003E2D4F2D502F612F7B2F8C2D9B2DA0E0FE
:103130000E94861D09F054F4D12C6DE2E62E71E355
:10314000F72E01E010E0B0E0C12CB12CDD82EF825F
:10315000FB860C871D87BE87CF86B88A272D382D22
:10316000492D5B816C81762D852D942DA0E00E94E8
:10317000861D51F1AD80BF80CB84DC84ED84FE845C
:103180000F851889272D382D492D5B816C81762D6F
:10319000852D942D0E94DC1CD22EE32EF42E052FBB
:1031A000162FB72FF82FE92F7A2C8B2C9C2C2C85DF
:1031B0002B833D853C836E845F8448882D2D3E2D76
:1031C000A0E00E94861DA9F489859A8501969A87B8
:1031D0008987A981BA815296BA83A9837D808F801D
:1031E0009B84BC85BB83ED85EC836E845F844888BB
:1031F00071CFDD82EF82FB860C871D87BE87FF873C
:10320000E88BB8CF272D382D492D5B816C81762D29
:10321000852D942DA0E00E94861D59F4712C4DE25D
:10322000842E51E3952EF1E0FB831C82612C512CFE
:10323000412C7092000280920102909202022B8136
:10324000209303023C813093040260920502509265
:10325000060240920702211480E4380608F0A3C059
:10326000C101880F991F009709F4A0C00E94921D08
:103270009E838D8390934D0780934C07211490E299
:10328000390608F096C0C101880F991F880F991F51
:10329000009709F491C00E94921D98878F839093A4
:1032A00053078093520730925507209254071A8291
:1032B0001982312C212CA985BA85E981FA81AE17B2
:1032C000BF0709F489C0AB89BC891296DC901297BC
:1032D0001396EC9013971496FC90149715960C91F6
:1032E000159716961C9116971796BC91EB89FC8939
:1032F000C084B1842D2D3E2D4F2D502F612F7B2F5B
:103300008C2D9B2DA0E00E94861D09F044F4272DF2
:10331000382D492D5B816C81762D852D942DA72C20
:10332000B82CC92CDB80EC80F62C052D142D0E94C6
:10333000DE1CB22EA32E742F652FAB89BC8950964C
:103340004D915C918A01000F111F7101EE0CFF1C61
:103350006101CC0CDD1CCC0CDD1C90E080E008177A
:10336000190769F1AB89BC891E96ED91FC91E80FB4
:10337000F91F20813181F701E80FF91FAD81BE816E
:10338000EA0FFB1F31832083FC01EE0FFF1FEC0DC2
:10339000FD1D2F813885E20FF31FB082A182728359
:1033A00063830296DCCF8FEF9FEF60CF81E090E0E8
:1033B0005DCF8FEF9FEF6FCF81E090E06CCF240E59
:1033C000351E89819A8101969A838983AB89BC894C
:1033D0005296BC8BAB8B6FCFE0917A08F0917B0853
:1033E00082E08083E0917608F09177081082E09186
:1033F0007808F091790880E1808310928208E0914A
:103400007E08F0917F0886E08083E0917C08F0914F
:103410007D08808180618083E0917C08F0917D0847
:10342000808188608083E0917C08F0917D088081B4
:1034300080688083E0917C08F0917D0880818F7D99
:1034400080838AE698E090935805809357058FEF24
:10345000809356058EEE92E0909355058093540527
:1034600081E49AE0909353058093520581E0809324
:10347000310784E38093340784E180933707809396
:103480003A0788E380933D0790E29093400780934A
:10349000430787E090E00E94921D90933C07809341
:1034A0003B07009709F451C017E0FC01212F11924E
:1034B0002A95E9F788E690E00E94921D90933307E1
:1034C00080933207009709F440C028E6DC011D9282
:1034D0002A95E9F780E590E00E94921D90933607C7
:1034E00080933507009789F120E5FC0111922A9518
:1034F000E9F780EA90E00E94921D9093390780934B
:103500003807009711F120EADC011D922A95E9F7AE
:1035100087E090E00E94921D9093420780934107BC
:10352000009799F0FC0111921A95E9F780E490E078
:103530000E94921D90933F0780933E07009729F0C9
:1035400020E4DC011D922A95E9F710E000E0C801B3
:10355000880F991FFC01EF53F94F7F018081918102
:10356000892B49F481E090E00E94921DD7018D9350
:103570009C93FC0110820F5F1F4F0833110539F730
:103580000091320710913307E1E8F6E090E080E027
:1035900021913191232B39F4DF0112979801280FE3
:1035A000391F2D933C9302968034910589F7D12CD5
:1035B000C12CC601880F991F9C012F5E394F7901DC
:1035C000D9018D919C91892B49F481E090E00E9472
:1035D000921DF70191838083DC011C92BFEFCB1A0F
:1035E000DB0AE8E3CE16D10421F720913E073091A3
:1035F0003F07E1EDF5E090E080E041915191452BEE
:1036000039F4DF011297A901480F591F4D935C93BC
:1036100002968034910589F7E9EAF5E090E080E0D0
:10362000005C1F4F21913191232B39F4DF01129758
:103630009801280F391F2D933C93029688329105EB
:1036400089F74091350750913607E1E8F5E090E0C1
:1036500080E021913191232B59F4DF0112979C01D5
:10366000220F331F220F331F240F351F2D933C933E
:1036700001968431910569F74091380750913907D7
:10368000E9E5F5E090E080E021913191232B61F4B0
:10369000DF0112979C0163E0220F331F6A95E1F767
:1036A000240F351F2D933C9301968431910561F7CA
:1036B00048EEA42E53E0B52EC12CD12CE12CF12CD8
:1036C00000E010E0272D382D492D5B816C81762D8F
:1036D000852D942D0E94DE1C2093570730935807A8
:1036E0004093590750935A070E94960260935B07D4
:1036F00070935C0780935D0790935E079924939481
:103700000E94960200915B0710915C0720915D0773
:1037100030915E07601B710B820B930B0091570772
:10372000109158072091590730915A076017710777
:103730008207930708F4C5C01A8219828091540742
:103740009091550729813A8128173907D8F5E091DA
:103750005207F0915307C901880F991F880F991FCD
:10376000E80FF91F208131814281538121153105F4
:103770004105510571F060914E0770914F0780919E
:103780005007909151070E94A31C672B682B692B4F
:1037900099F4E0914C07F0914D0789819A81880F47
:1037A000991FE80FF91F80819181DC01ED91FC9157
:1037B0000480F581E02D1995E981FA813196FA832B
:1037C000E983BCCF80914E0790914F07A09150079D
:1037D000B09151070196A11DB11D80934E079093A2
:1037E0004F07A0935007B0935107209144073091A1
:1037F00045074091460750914707609148077091EF
:10380000490780914A0790914B07A0900002B09021
:103810000102C0900202D0900302E0900402F090F6
:10382000050200910602109107020E94711D20936B
:1038300044073093450740934607509347076093EA
:1038400048077093490780934A0790934B070E945B
:10385000170980915607811118C0909256070E944F
:1038600096020091570710915807209159073091FF
:103870005A07601B710B820B930B60935B0770936D
:103880005C0780935D0790935E0780915B07909142
:103890005C07A0915D07B0915E074091570750917A
:1038A00058076091590770915A07840F951FA61FFA
:1038B000B71F80935B0790935C07A0935D07B0935D
:1038C0005E070E94960200915B0710915C072091B1
:1038D0005D0730915E07601B710B820B930B6031AB
:1038E00077428105910510F00E94170988950E9482
:1038F000C40306CF0E947F1C08F48FEF0895990F30
:103900000008550FAA0BE0E8FEEF16161706E807A9
:10391000F907C0F012161306E407F50798F0621BCA
:10392000730B840B950B39F40A2661F0232B242B9F
:10393000252B21F408950A2609F4A140A6958FEFBE
:10394000811D811D0895A1E21A2EAA1BBB1BFD013A
:103950000DC0AA1FBB1FEE1FFF1FA217B307E4076E
:10396000F50720F0A21BB30BE40BF50B661F771FC6
:10397000881F991F1A9469F76095709580959095A6
:103980009B01AC01BD01CF010895EE0FFF1F881F01
:103990008BBF0790F691E02D1994A29FB001B39FC1
:1039A000C001A39F700D811D1124911DB29F700D48
:1039B000811D1124911D0895689401C0E8948F928F
:1039C0009F92CF93DF930E94EA1CDF91CF919F904B
:1039D0008F90089588249924F401E401B0E49F9322
:1039E000AA279A158B049C04ED05FE05CF05D00788
:1039F000A10798F4AD2FDC2FCF2FFE2FE92D982CA7
:103A0000892E982F872F762F652F542F432F322FF3
:103A10002227B85031F7BF9127C01B2EBF91BB277B
:103A2000220F331F441F551F661F771F881F991FC2
:103A3000881C991CEE1FFF1FCC1FDD1FAA1FBB1F78
:103A40008A149B04EC05FD05CE05DF05A007B10730
:103A500048F08A189B08EC09FD09CE09DF09A00B84
:103A6000B10B21601A94E1F62EF49401AF01BE016E
:103A7000CD01000C0895002E083090F0982F872F6C
:103A8000762F652F542F432F322F22270850F4CF43
:103A9000220F331F441F551F661F771F881F991F52
:103AA0000A95B2F7002D089597FD1094002E083066
:103AB00098F00850232F342F452F562F672F782F3B
:103AC000892F912DF4CF15949795879577956795C4
:103AD00057954795379527950A95AAF71124002DF4
:103AE00008952A0D3B1D4C1D5D1D6E1D7F1D801F01
:103AF000911F08950024A7FD00942A0F301D401D3A
:103B0000501D601D701D801D901D08950024A7FD8F
:103B100000942A17300540055005600570058005A2
:103B2000900508950F931F93CF93DF9382309105F3
:103B300010F482E090E0E0917C09F0917D0930E0A2
:103B400020E0B0E0A0E0309799F42115310509F4A8
:103B50004AC0281B390B24303105D8F58A819B8156
:103B60006115710589F1FB0193838283FE0111C008
:103B7000408151810281138148175907E0F04817AD
:103B8000590799F4109761F012960C9312971396B7
:103B90001C933296CF01DF91CF911F910F91089521
:103BA00000937C0910937D09F4CF2115310551F064
:103BB0004217530738F0A901DB019A01BD01DF016B
:103BC000F801C1CFEF01F9CF90937D0980937C0973
:103BD000CDCFFE01E20FF31F819391932250310963
:103BE00039832883D7CF20917A0930917B09232B01
:103BF00041F420910A0230910B0230937B0920930B
:103C00007A0920910802309109022115310541F409
:103C10002DB73EB740910C0250910D02241B350B7D
:103C2000E0917A09F0917B09E217F307A0F42E1BCB
:103C30003F0B2817390778F0AC014E5F5F4F241710
:103C4000350748F04E0F5F1F50937B0940937A0968
:103C5000819391939FCFF0E0E0E09CCFCF93DF93EF
:103C60000097E9F0FC01329713821282A0917C093F
:103C7000B0917D09ED0130E020E01097A1F42081A2
:103C80003181820F931F20917A0930917B09281787
:103C9000390709F061C0F0937B09E0937A09DF915D
:103CA000CF910895EA01CE17DF07E8F54A815B81DD
:103CB0009E0141155105B1F7E901FB83EA83499162
:103CC0005991C40FD51FEC17FD0761F480819181D4
:103CD0000296840F951FE9019983888382819381DD
:103CE0009B838A83F0E0E0E012968D919C9113977C
:103CF0000097B9F52D913C911197CD010296820F55
:103D0000931F20917A0930917B092817390739F6DA
:103D1000309751F510927D0910927C09B0937B0980
:103D2000A0937A09BCCFD383C28340815181840F91
:103D3000951FC817D90761F44E5F5F4F888199813D
:103D4000480F591F518340838A819B8193838283CB
:103D50002115310509F0B0CFF0937D09E0937C097E
:103D60009ECFFD01DC01C0CF13821282D7CFFB01B1
:103D7000DC0102C001900D9241505040D8F70895E7
:103D8000DC0101C06D9341505040E0F70895F89474
:103D9000FFCF002D31010000000000007E098000EF
:103DA00000C0C101C30302C2C60607C705C5C404DB
:103DB000CC0C0DCD0FCFCE0E0ACACB0BC90908C84B
:103DC000D81819D91BDBDA1A1EDEDF1FDD1D1CDC3B
:103DD00014D4D515D71716D6D21213D311D1D010AB
:103DE000F03031F133F3F23236F6F737F53534F49B
:103DF0003CFCFD3DFF3F3EFEFA3A3BFB39F9F8380B
:103E000028E8E929EB2B2AEAEE2E2FEF2DEDEC2CFA
:103E1000E42425E527E7E62622E2E323E12120E06A
:103E2000A06061A163A3A26266A6A767A56564A45A
:103E30006CACAD6DAF6F6EAEAA6A6BAB69A9A868CA
:103E400078B8B979BB7B7ABABE7E7FBF7DBDBC7CBA
:103E5000B47475B577B7B67672B2B373B17170B02A
:103E6000509091519353529296565797559594541A
:103E70009C5C5D9D5F9F9E5E5A9A9B5B995958988A
:103E8000884849894B8B8A4A4E8E8F4F8D4D4C8C7A
:103E900044848545874746868242438341818040EA
:103EA00000C1814001C0804101C0804100C181400A
:103EB00001C0804100C1814000C1814001C08041FA
:103EC00001C0804100C1814000C1814001C08041EA
:103ED00000C1814001C0804101C0804100C18140DA
:103EE00001C0804100C1814000C1814001C08041CA
:103EF00000C1814001C0804101C0804100C18140BA
:103F000000C1814001C0804101C0804100C18140A9
:103F100001C0804100C1814000C1814001C0804199
:103F200001C0804100C1814000C1814001C0804189
:103F300000C1814001C0804101C0804100C1814079
:103F400000C1814001C0804101C0804100C1814069
:103F500001C0804100C1814000C1814001C0804159
:103F600000C1814001C0804101C0804100C1814049
:103F700001C0804100C1814000C1814001C0804139
:103F800001C0804100C1814000C1814001C0804129
:103F900000C1814001C0804101C0804100C1814019
:103FA000A50873065807980801970694068A0681A3
:103FB000060179067606690660060155062C064854
:103FC000063D060232062F061F06140602FF054BA9
:103FD00004EC05DD0504C805C505B205A305047993
:103FE00005FA044D052A05080005FD04CE04AB04BE
:103FF0000896049304800466040451044E043804B3
:104000001E040479067606690660060132062F064C
:104010001F06140602C805C505B205A30504000560
:10402000FD04CE04AB04087905FA044D052A050801
:104030007905FA044D052A05087905FA044D052A83
:1040400005087905FA044D052A05081E149308A9E8
:104050001467147FD707D307C7133608FD00000085
:10406000005703C102EE02A4031F03FD0211030067
:10407000000000F5031814A7060604030402040256
:1040800004F70300000000F6031A14F80606040300
:104090000402040204F7030000000009041C140ACF
:1040A00004BE02BB02434F4E4649473000653030E4
:1040B000333134666536336334326161656134347B
:1040C00034393965333139623162366139005441EE
:0E40D000534B30005245533000504C4300001B
:020000040003F7
:10E000000D9489F10D94B2F10D94B2F10D94B2F129
:10E010000D94B2F10D94B2F10D94B2F10D94B2F1F0
:10E020000D94B2F10D94B2F10D94B2F10D94B2F1E0
:10E030000D94B2F10D94B2F10D94B2F10D94B2F1D0
:10E040000D94B2F10D94B2F10D94B2F10D94B2F1C0
:10E050000D94B2F10D94B2F10D94B2F10D94B2F1B0
:10E060000D94B2F10D94B2F10D94B2F10D94B2F1A0
:10E070000D94B2F10D94B2F10D94B2F10D94B2F190
:10E080000D94B2F10D94B2F10D94B2F10D94B2F180
:10E090000D94B2F10D94B2F10D94B2F10D94B2F170
:10E0A0000D94B2F10D94B2F10D94B2F10D94B2F160
:10E0B0000D94B2F10D94B2F10D94B2F10D94B2F150
:10E0C0000D94B2F10D94B2F10D94B2F10D94B2F140
:10E0D0000D94B2F10D94B2F10D94B2F10D94B2F130
:10E0E0000D94B2F141546D656761323536300041AF
:10E0F000726475696E6F206578706C6F72657220DE
:10E1000073746B3530305632206279204D4C530099
:10E11000426F6F746C6F616465723E004875683F52
:10E1200000436F6D70696C6564206F6E203D200048
:10E130004350552054797065202020203D20005FF9
:10E140005F4156525F415243485F5F3D2000415658
:10E1500052204C696243205665723D20004743437C
:10E160002056657273696F6E203D20004350552024
:10E1700049442020202020203D20004C6F7720663D
:10E18000757365202020203D20004869676820665F
:10E190007573652020203D200045787420667573D6
:10E1A00065202020203D20004C6F636B2066757336
:10E1B000652020203D20004D617220203720323024
:10E1C000313300312E362E3800342E332E350056A2
:10E1D00023202020414444522020206F7020636F70
:10E1E00064652020202020696E73747275637469E1
:10E1F0006F6E2061646472202020496E74657272B3
:10E20000757074006E6F20766563746F7200726A49
:10E210006D702020006A6D70200057686174207056
:10E220006F72743A00506F7274206E6F7420737541
:10E2300070706F72746564004D7573742062652030
:10E2400061206C6574746572002000577269747483
:10E25000696E672045450052656164696E672045B7
:10E26000450045452065727220636E743D00504F35
:10E27000525400303D5A65726F2061646472003FF1
:10E280003D43505520737461747300403D454550C3
:10E29000524F4D207465737400423D426C696E6B41
:10E2A000204C454400453D44756D70204545505215
:10E2B0004F4D00463D44756D7020464C415348001B
:10E2C000483D48656C70004C3D4C69737420492F83
:10E2D0004F20506F72747300513D51756974005234
:10E2E0003D44756D702052414D00563D73686F7707
:10E2F00020696E7465727275707420566563746FF0
:10E30000727300593D506F727420626C696E6B00BD
:10E310002A0011241FBECFEFD1E2DEBFCDBF01E046
:10E320000CBF12E0A0E0B2E0EEE1FDEF03E00BBFB6
:10E3300002C007900D92A030B107D9F712E0A0E01B
:10E34000B2E001C01D92AE30B107E1F70F9460F367
:10E350000D948DFE01E20EBF0FEF0DBF11241FBE05
:10E360000D9460F30D9400F020E030E040ED57E0B4
:10E3700005C0FA013197F1F72F5F3F4F2817390792
:10E38000C0F308959C01260F311DC901A0E0B0E043
:10E390002F5F3F4FABBFFC018791882361F08093D3
:10E3A000C6008091C00086FFFCCF8091C0008064D1
:10E3B0008093C000EACF08958DE08093C6008091DD
:10E3C000C00086FFFCCF8091C00080648093C000B5
:10E3D0008AE08093C6008091C00086FFFCCF8091C8
:10E3E000C00080648093C00008950F94C2F10F9420
:10E3F000DCF10895FC019081992359F09093C600B7
:10E400008091C00086FFFCCF8091C0008064809323
:10E41000C0003196992379F70895282F982F929567
:10E420009F70892F805D8A3308F0895F8093C600D2
:10E430008091C00086FFFCCF8091C00080648093F3
:10E44000C000822F8F70982F905D9A3308F0995FEB
:10E450009093C6008091C00086FFFCCF8091C000E1
:10E4600080648093C00008959C01FB01853691056E
:10E470001CF46330710594F0C90164E670E00F94F8
:10E480002EFE605D7F4F6093C6008091C00086FFC6
:10E49000FCCF8091C00080648093C0002B30310598
:10E4A00014F43297B4F0C90164E670E00F942EFEC4
:10E4B0006AE070E00F942EFE605D7F4F6093C600AF
:10E4C0008091C00086FFFCCF8091C0008064809363
:10E4D000C000C9016AE070E00F942EFEC0968093E0
:10E4E000C6008091C00086FFFCCF8091C000806490
:10E4F0008093C00008951F93182F8EE692EE60E07F
:10E500000F94C2F11093C6008091C00086FFFCCF2B
:10E510008091C00080648093C0000F94DCF11F9153
:10E5200008952F923F924F925F926F927F928F92B7
:10E530009F92AF92BF92CF92DF92EF92FF920F9392
:10E540001F93DF93CF93CDB7DEB762970FB6F894E2
:10E55000DEBF0FBECDBF382E622ECA01DB015C01CB
:10E560006D01772420E2222E2E010894411C511CBB
:10E570008BC081E0A81680E0B80681E0C80680E084
:10E58000D80628F0C601AA27BB270F940DF2BB2797
:10E59000AD2D9C2D8B2D0F940DF28A2D0F940DF225
:10E5A0002092C6008091C00086FFFCCF8091C00001
:10E5B00080648093C0009DE29093C6008091C0006B
:10E5C00086FFFCCF8091C00080648093C0002092C1
:10E5D000C6008091C00086FFFCCF8091C00080649F
:10E5E0008093C00019828601750188249924A1E0D6
:10E5F0003A1651F03A1620F0B2E03B1661F409C029
:10E600000BBFF701779007C0C7010F9477FE782EF4
:10E6100002C0F7017080872D0F940DF22092C60082
:10E620008091C00086FFFCCF8091C0008064809301
:10E63000C000872D8052F401EF70F0708F3520F408
:10E64000E40DF51D708204C0E40DF51D8EE280839B
:10E650000894E11CF11C011D111D0894811C911CE2
:10E6600090E18916910409F0C2CF80E190E0A0E02A
:10E67000B0E0A80EB91ECA1EDB1E198AC2010F9493
:10E68000FAF10F94DCF16A94662009F072CF629679
:10E690000FB6F894DEBF0FBECDBFCF91DF911F91B3
:10E6A0000F91FF90EF90DF90CF90BF90AF909F9031
:10E6B0008F907F906F905F904F903F902F90089534
:10E6C0002F923F924F925F926F927F928F929F9282
:10E6D000AF92BF92CF92DF92EF92FF920F931F9370
:10E6E000DF93CF93CDB7DEB7CD53D1400FB6F894BB
:10E6F000DEBF0FBECDBF01E20EBF0FEF0DBF94B75F
:10E70000F894A89514BE80916000886180936000A1
:10E7100010926000789493FF05C0E0910002F091A0
:10E7200001021995279A2F9A8091C00082608093E8
:10E73000C00080E18093C40088E18093C1000000A4
:10E74000EE24FF24870144E0A42EB12CCC24DD2448
:10E7500024C0C5010197F1F70894E11CF11C011DCB
:10E76000111D21E2E2162EE4F20620E0020720E06D
:10E77000120718F031E0C32ED12CC801B70127ECE5
:10E780003BE140E050E00F9441FE611571058105C9
:10E79000910519F485B1805885B98091C00087FD35
:10E7A00003C0C114D104A9F2A6014F5F5F4FC25E3E
:10E7B000DE4F59834883CE51D140C25EDE4F8881FF
:10E7C0009981CE51D140019711F00D9410FEC05D9A
:10E7D000DE4F19821882C053D14060E0C15DDE4F28
:10E7E0001882CF52D14088249924C35DDE4F19820C
:10E7F0001882CD52D140C05EDE4F188219821A8233
:10E800001B82C052D140CE5CDE4F188219821A8220
:10E810001B82C253D140EE24FF2487010BBFF701B6
:10E8200007911691C45CDE4F19830883CC53D14005
:10E830000D940BFEC25EDE4F28813981CE51D1404E
:10E840002130310509F52091C600C25EDE4F1982E4
:10E850001882CE51D14022C02F5F3F4F4F4F5F4FA4
:10E86000213082E138078AE7480780E0580780F0C6
:10E87000C45CDE4FE881F981CC53D140EF5FFF4F9C
:10E8800019F0EE27FF27099420E030E040E050E047
:10E890008091C00087FFE0CF2091C600C35DDE4FAE
:10E8A00048815981CD52D1404F5F5F4FC35DDE4FEC
:10E8B00059834883CD52D140213209F063C64A3092
:10E8C000510508F05FC60894811C911C53E0851621
:10E8D000910409F059C600E010E018C081E280936D
:10E8E000C6008091C00086FFFCCF8091C00080648C
:10E8F0008093C0002F5F3F4F2931310579F70F9486
:10E90000DCF10F5F1F4F0530110519F020E030E0FA
:10E91000E5CF10920A0210920B0210920C02109294
:10E920000D02109206021092070210920802109235
:10E930000902109202021092030210920402109235
:10E9400005028FEE90EE60E00F94F5F180E191EE1C
:10E9500060E00F94C2F18091C00087FFFCCF9091DE
:10E96000C600903608F09F759032B8F09093C600BC
:10E970008091C00086FFFCCF8091C00080648093AE
:10E98000C000A0E2A093C6008091C00086FFFCCF2B
:10E990008091C00080648093C000983409F4D7C18E
:10E9A0009934B8F4923409F459C1933458F490333B
:10E9B00019F1903308F4E3C59F33A1F1903409F0C5
:10E9C000DEC5BDC0953409F470C1963409F0D7C5D1
:10E9D00098C1923509F42BC2933538F49C3409F46C
:10E9E000F5C1913509F0CBC518C2963509F445C279
:10E9F000993509F0C4C567C483E792EE62E00F94CD
:10EA0000F5F110920602109207021092080210927D
:10EA1000090210920A0210920B0210920C0210923C
:10EA20000D0213C18FE792EE62E00F94F5F18FEEC5
:10EA300090EE60E00F94F5F181E291EE60E00F94CA
:10EA4000C2F187EB91EE60E00F94F5F180E391EE77
:10EA500060E00F94C2F184EE90EE60E00F94F5F167
:10EA60008FE391EE60E00F94C2F186E090E061E008
:10EA700070E00F9434F20F94DCF18DE591EE60E0DC
:10EA80000F94C2F189EC91EE60E00F94F5F18EE401
:10EA900091EE60E00F94C2F183EC91EE60E00F9490
:10EAA000F5F18CE691EE60E00F94C2F18EE10F94E7
:10EAB0000DF288E90F940DF281E00F940DF20F949E
:10EAC000DCF18BE791EE60E00F94C2F119E0E0E039
:10EAD000F0E010935700E4918E2F0F940DF20F94F5
:10EAE000DCF18AE891EE60E00F94C2F1E3E0F0E03F
:10EAF00010935700E4918E2F0F940DF20F94DCF1D8
:10EB000089E991EE60E00F94C2F1E2E0F0E0109349
:10EB10005700E4918E2F0F940DF20F94DCF188EAE8
:10EB200091EE60E00F94C2F1E1E0F0E01093570045
:10EB30001491812F0F940DF20F94DCF107CF8BE825
:10EB400092EE62E00F94F5F18BE492EE60E00F94A8
:10EB5000F5F10F94DCF100E010E019C0C8016F2D51
:10EB60000F947FFEFF2031F489E492EE60E00F9471
:10EB7000C2F10BC0F092C6008091C00086FFFCCFAE
:10EB80008091C00080648093C0000F5F1F4FC80158
:10EB900081519F41A0E0B0E0ABBFFC01F790BAE229
:10EBA000FB1621F0E2E000301E07C1F60F94DCF105
:10EBB0000F94DCF187E592EE60E00F94F5F10F948D
:10EBC000DCF1CC24DD2400E010E01EC0C8010F946D
:10EBD00077FEF82E882331F489E492EE60E00F94FA
:10EBE000C2F10BC08093C6008091C00086FFFCCFAD
:10EBF0008091C00080648093C000FE1419F00894D6
:10EC0000C11CD11C0F5F1F4FC80181519F41A0E063
:10EC1000B0E0ABBFFC01E790FAE2EF1621F022E092
:10EC20000030120799F60F94DCF10F94DCF182E6C4
:10EC300092EE60E00F94C2F1C60161E070E00F94C3
:10EC400034F20F94DCF10F94DCF110920202109276
:10EC50000302109204021092050278CE89E992EE26
:10EC600062E00F94F5F1279A2F9A16C02F9880E052
:10EC700090E0E0EDF7E03197F1F7019684369105E9
:10EC8000C1F72F9A80E090E0E0EDF7E03197F1F7DF
:10EC9000019684369105C1F78091C00087FFE6CFC9
:10ECA0008091C00087FFFCCF64C485EA92EE62E0E9
:10ECB0000F94F5F140910202509103026091040219
:10ECC0007091050281E020E10F9491F2809102029F
:10ECD00090910302A0910402B091050280509F4FD1
:10ECE000AF4FBF4F8093020290930302A0930402A0
:10ECF000B093050280509041A040B04008F426CE69
:10ED0000A4CF83EB92EE62E00F94F5F140910602FE
:10ED100050910702609108027091090280E020E1A1
:10ED20000F9491F28091060290910702A09108023F
:10ED3000B091090280509F4FAF4FBF4F80930602A2
:10ED400090930702A0930802B0930902FFCD80ECD4
:10ED500092EE62E00F94F5F183E792EE60E00F949B
:10ED6000F5F18FE792EE60E00F94F5F18BE892EE0B
:10ED700060E00F94F5F189E992EE60E00F94F5F10F
:10ED800085EA92EE60E00F94F5F183EB92EE60E09D
:10ED90000F94F5F180EC92EE60E00F94F5F187ECC2
:10EDA00092EE60E00F94F5F188ED92EE60E00F9442
:10EDB000F5F18FED92EE60E00F94F5F18AEE92EEB0
:10EDC00060E00F94F5F183E093EEBDCD87EC92EE19
:10EDD00062E00F94F5F181E40F947BF282E40F94EA
:10EDE0007BF283E40F947BF284E40F947BF285E45E
:10EDF0000F947BF286E40F947BF287E40F947BF20E
:10EE000088E40F947BF28AE40F947BF28BE40F94F6
:10EE10007BF28CE40F947BF299CD88ED92EE62E068
:10EE20000F94F5F1772473948824992409C48FED05
:10EE300092EE62E00F94F5F140910A0250910B02BC
:10EE400060910C0270910D0282E020E10F9491F22A
:10EE500080910A0290910B02A0910C02B0910D02D8
:10EE600080509F4FAF4FBF4F80930A0290930B0289
:10EE7000A0930C02B0930D0269CD8AEE92EE62E08F
:10EE80000F94F5F184EE90EE60E00F94F5F18FECC5
:10EE900091EE60E00F94F5F1662477244301CC5D98
:10EEA000DE4F19821882C452D140D401C301B695F5
:10EEB000A79597958795CA5DDE4F88839983AA8326
:10EEC000BB83C652D140CC5DDE4FA881B981C4520C
:10EED000D1401196CC5DDE4FB983A883C452D14096
:10EEE000CD0162E070E00F9434F2B0E2B093C6005E
:10EEF0008091C00086FFFCCF8091C0008064809329
:10EF0000C000EDE2E093C6008091C00086FFFCCF18
:10EF10008091C00080648093C000F0E2F093C6004E
:10EF20008091C00086FFFCCF8091C00080648093F8
:10EF3000C000CA5DDE4FE880F9800A811B81C6529D
:10EF4000D140BB27A12F902F8F2D0F940DF2CA5DBA
:10EF5000DE4F8881C652D1400F940DF2B0E2FB2EF5
:10EF6000F092C6008091C00086FFFCCF8091C00067
:10EF700080648093C0000DE30093C6008091C000C0
:10EF800086FFFCCF8091C00080648093C00010E2B7
:10EF90001093C6008091C00086FFFCCF8091C00016
:10EFA00080648093C0008BBEF3012791C65DDE4F65
:10EFB0002883CA52D140A22EBB24CC24DD2408943D
:10EFC000611C711C811C911C8BBEF3018791282E42
:10EFD0003324442455240894611C711C811C911C09
:10EFE0008BBEF3013791C55DDE4F3883CB52D140E4
:10EFF0000894611C711C811C911C8BBEF30147910C
:10F00000C45DDE4F4883CC52D140ADEFEA2EAFEF66
:10F01000FA2EAFEF0A2FAFEF1A2F6E0C7F1C801E57
:10F02000911E142D032DF22CEE24EA0CFB1C0C1D5A
:10F030001D1D0F940DF220E22093C6008091C000A8
:10F0400086FFFCCF8091C00080648093C000C65DC5
:10F05000DE4F8881CA52D1400F940DF230E23093D6
:10F06000C6008091C00086FFFCCF8091C000806404
:10F070008093C000C45DDE4F8881CC52D1400F9494
:10F080000DF240E24093C6008091C00086FFFCCFA5
:10F090008091C00080648093C000C55DDE4F888190
:10F0A000CB52D1400F940DF250E25093C6008091A4
:10F0B000C00086FFFCCF8091C00080648093C000B8
:10F0C0008FEFE8168FEFF80680E0080780E018075A
:10F0D00031F484E092EE60E00F94C2F1DFC0D80119
:10F0E000C7018070907CA070B0708050904CA040A0
:10F0F000B040D1F52FEF3FE340E050E0E222F322B1
:10F1000004231523CA5DDE4FA880B980CA80DB8046
:10F11000C652D140AE0CBF1CC01ED11EAA0CBB1CD7
:10F12000CC1CDD1C8EE092EE60E00F94C2F1BB2798
:10F13000A12F902F8F2D0F940DF28E2D0F940DF285
:10F1400030E23093C6008091C00086FFFCCF8091F2
:10F15000C00080648093C0004EE34093C60080915D
:10F16000C00086FFFCCF87C08EE09EEFA0E0B0E03D
:10F17000E822F9220A231B239CE0E91694E9F90608
:10F1800090E0090790E0190709F088C0C45DDE4FE0
:10F19000A881CC52D140EA2EFF2400E010E0102FCD
:10F1A0000F2DFE2CEE24C55DDE4FB881CB52D14031
:10F1B000EB0EF11C011D111DD601C501817090706F
:10F1C000A070B070DC0199278827E80EF91E0A1F8D
:10F1D0001B1F20EF30E040E050E0A222B322C42207
:10F1E000D52241E1AA0CBB1CCC1CDD1C4A95D1F7F1
:10F1F000EA0CFB1C0C1D1D1D81E090E0A0E0B0E0BE
:10F20000282239224A225B2235E1220C331C441C7D
:10F21000551C3A95D1F7E20CF31C041D151D57013E
:10F220006801AA0CBB1CCC1CDD1C85E192EE60E0E1
:10F230000F94C2F1C801AA27BB270F940DF2BB2778
:10F24000A12F902F8F2D0F940DF28E2D0F940DF274
:10F2500090E29093C6008091C00086FFFCCF809121
:10F26000C00080648093C000AEE3A093C60080918C
:10F27000C00086FFFCCF8091C00080648093C000F6
:10F28000C601AA27BB270F940DF2BB27AD2D9C2DDD
:10F290008B2D0F940DF28A2D0F940DF20F94DCF14B
:10F2A000CC5DDE4FE881F981C452D140F99709F471
:10F2B0004DCBF4E0EF2EF12C012D112D6E0C7F1CA7
:10F2C000801E911EF2CD83E093EE62E00F94F5F183
:10F2D0008AE192EE60E00F94C2F18091C00087FF56
:10F2E000FCCF1091C6001F751093C6008091C0001E
:10F2F00086FFFCCF8091C00080648093C0000F9493
:10F30000DCF1812F81548A3108F036C1163409F4BA
:10F3100095C0173490F4133409F44EC0143430F40B
:10F320001134F1F0123409F01DC130C0143409F465
:10F3300059C0153409F016C16BC01A3409F4C4C0A1
:10F340001B3438F4173409F48FC0183409F00AC19B
:10F35000A1C01B3409F4D2C01C3409F003C1E8C0B9
:10F360008FEF81B90DC082B1809582B980E090E0C5
:10F37000E0EDF7E03197F1F70196883C9105C1F790
:10F380008091C00087FFEFCF12B8EFC08FEF84B934
:10F390000DC085B1809585B980E090E0E0EDF7E0A3
:10F3A0003197F1F70196883C9105C1F78091C00033
:10F3B00087FFEFCF15B8D9C08FEF87B90DC088B1DF
:10F3C000809588B980E090E0E0EDF7E03197F1F7C3
:10F3D0000196883C9105C1F78091C00087FFEFCF6F
:10F3E00018B8C3C08FEF8AB90DC08BB180958BB9A7
:10F3F00080E090E0E0EDF7E03197F1F70196883C8E
:10F400009105C1F78091C00087FFEFCF1BB8ADC059
:10F410008FEF8DB90DC08EB180958EB980E090E0F0
:10F42000E0EDF7E03197F1F70196883C9105C1F7DF
:10F430008091C00087FFEFCF1EB897C08FEF80BBD1
:10F440000DC081B3809581BB80E090E0E0EDF7E0F6
:10F450003197F1F70196883C9105C1F78091C00082
:10F4600087FFEFCF11BA81C08FEF83BB0DC084B38C
:10F47000809584BB80E090E0E0EDF7E03197F1F714
:10F480000196883C9105C1F78091C00087FFEFCFBE
:10F4900014BA6BC08FEF809301010FC080910201FD
:10F4A00080958093020180E090E0E0EDF7E03197F5
:10F4B000F1F70196883C9105C1F78091C00087FF64
:10F4C000EDCF1092020151C08FEF809304010FC065
:10F4D0008091050180958093050180E090E0E0ED4A
:10F4E000F7E03197F1F70196883C9105C1F78091DB
:10F4F000C00087FFEDCF1092050137C08FEF8093DA
:10F5000007010FC08091080180958093080180E079
:10F5100090E0E0EDF7E03197F1F70196883C910536
:10F52000C1F78091C00087FFEDCF109208011DC088
:10F530008FEF80930A010FC080910B01809580931B
:10F540000B0180E090E0E0EDF7E03197F1F70196F4
:10F55000883C9105C1F78091C00087FFEDCF1092E4
:10F560000B0103C085E292EEEEC98091C00087FFD7
:10F57000FCCF8091C600EAC988E392EEE4C98CE131
:10F5800091EEE1C988249924933011F1943028F444
:10F59000913089F09230B8F408C0953061F195301F
:10F5A000F0F0963009F048C043C02B3109F042C951
:10F5B00091E06BE13FC96227C15DDE4F2883CF52E6
:10F5C000D14092E037C9B22FA0E0622793E032C960
:10F5D000822F90E0A82BB92B622794E02BC92E3004
:10F5E00009F039C3622795E0C05DDE4F19821882A9
:10F5F000C053D1401FC9E1E0F0E0EC0FFD1FC05D3A
:10F60000DE4F08811981C053D140E00FF11F2083E4
:10F610000F5F1F4FC05DDE4F19830883C053D14079
:10F6200062270A171B0709F005C9D80196E002C92D
:10F63000261709F010C303C0973009F0FBC87724E0
:10F640009981933109F412C19431C8F4963009F4C8
:10F65000D8C0973050F4923009F406C1933009F4C1
:10F660006DC0913009F059C253C0913109F477C08F
:10F67000923108F0BBC0903109F04FC2F5C098310B
:10F6800009F487C0993150F4953109F4EFC09531F0
:10F6900008F4C6C1963109F040C2C2C19A3109F4DA
:10F6A0006CC09A3108F491C09B3109F45BC09D3164
:10F6B00009F033C29D81903359F48F81882311F46E
:10F6C0009EE11CC0813011F091E018C098E916C08D
:10F6D000892F807591F0903539F4E0E0F0E089E011
:10F6E0008093570094910AC0983539F4E3E0F0E034
:10F6F00089E080935700949101C090E01A821B82A8
:10F700008D818C831D829E831F8227E030E009C299
:10F710001A8288E08B8381E48C8386E58D8382E581
:10F720008E8389E48F8383E5888780E589878FE5E9
:10F730008A8782E38B872BE030E0F3C18A818139AD
:10F7400041F0823941F0803911F48FE005C080E04A
:10F7500003C082E001C08AE01A828B8344C0772410
:10F76000739482C08D81882311F48EE12CC0813086
:10F7700011F081E028C088E926C01A82E1E0F0E0BB
:10F7800089E08093570084918B831C8224E030E0D1
:10F79000C8C18B81803589F48C81883039F4E2E0EE
:10F7A000F0E089E08093570084910DC0E0E0F0E044
:10F7B00089E080935700849106C0E3E0F0E089E09F
:10F7C0008093570084911A82DFCF8D81836C99E0FA
:10F7D000E1E0F0E0082E90935700E89507B600FCB2
:10F7E000FDCF1A821B8223E030E09BC180EC8A832C
:10F7F000CE5CDE4F188219821A821B82C253D1401E
:10F800008EC18A8190E0A0E0B0E0582F44273327D2
:10F8100022278B8190E0A0E0B0E0DC0199278827C7
:10F82000282B392B4A2B5B2B8D8190E0A0E0B0E098
:10F83000282B392B4A2B5B2B8C8190E0A0E0B0E089
:10F84000BA2FA92F982F8827282B392B4A2B5B2BCF
:10F85000220F331F441F551FC05EDE4F288339839C
:10F860004A835B83C052D1401A8259C13A81C95C34
:10F87000DE4F3883C753D140CA5CDE4F1882C6536F
:10F88000D1408B81C82EDD24CA5CDE4F488159816E
:10F89000C653D140C42AD52A933109F082C0CE5C28
:10F8A000DE4F88819981AA81BB81C253D1408050AB
:10F8B000904CA340B04030F583E0CE5CDE4FE88052
:10F8C000F9800A811B81C253D140F70100935B008C
:10F8D00080935700E89507B600FCFDCFCE5CDE4F65
:10F8E000088119812A813B81C253D14000501F4FAA
:10F8F0002F4F3F4FCE5CDE4F088319832A833B8313
:10F90000C253D140C05EDE4F488159816A817B81FC
:10F91000C052D140DE011B9631E08C9111962C91A2
:10F9200011971296C75CDE4F2883C953D140C85C3B
:10F93000DE4F1882C853D14090E0C85CDE4FE881AA
:10F94000F981C853D1408E2B9F2B0C01FA01609393
:10F950005B0030935700E89511244E5F5F4F6F4F67
:10F960007F4F0EEFE02E0FEFF02ECE0CDF1CC114F8
:10F97000D10499F685E0C05EDE4F088119812A81A5
:10F980003B81C052D140F80120935B008093570027
:10F99000E89507B600FCFDCF81E180935700E8951C
:10F9A00035C0C05EDE4F88819981AA81BB81C0527B
:10F9B000D140B695A795979587957C018601ABE0D8
:10F9C000AA2EB12CAC0EBD1E0BC0D5016D915D01F0
:10F9D000C7010F947FFE0894E11CF11C01501040F8
:10F9E0000115110591F7A60160E070E0440F551F65
