:020000040000FA
:100000000C94BD010C94EE010C94EE010C94EE01E5
:100010000C94EE010C94EE010C94EE010C94EE01A4
:100020000C94EE010C94EE010C94EE010C94EE0194
:100030000C94EE010C94EE010C94EE010C94EE0184
:100040000C94EE010C94EE010C94EE010C94EE0174
:100050000C94EE010C94EE010C94EE010C948415BA
:100060000C94EE010C94F8150C94CE150C94EE0142
:100070000C94EE010C94EE010C94EE010C94EE0144
:100080000C94EE010C94EE010C94EE010C94EE0134
:100090000C94EE010C94EE010C94EE010C94EE0124
:1000A0000C94EE010C94EE010C94EE010C94EE0114
:1000B0000C94EE010C94EE010C94EE010C94EE0104
:1000C0000C94EE010C94EE010C94EE010C94EE01F4
:1000D0000C94EE010C94EE010C94EE010C94EE01E4
:1000E0000C94EE010C943C040C946A040C94B4142B
:1000F0000C9415030C94A8030C947A060C945502E6
:100100000C945D140C9498060C940D040C94360613
:100110000C94C2020C9443020C9401050C945906F1
:100120000C9455040C9494020C945D020C944106BA
:100130000C945B030C9423060C9459020C94AE149B
:100140000C9461020C94F2020C9477060C94300625
:100150000C94B6050C9406040C94FA030C94330624
:100160000C9486020C94D2040C949A040C949B0672
:100170000C942D090C943E020C94CB080C940306AD
:100180000C94F6140C94F0050C9401030C9468087C
:100190000C94A7050C94E1050C94B2140C94520431
:1001A0000C9464020C9464060C943A090C946A0250
:1001B0000C94C5020C9482020C94F9030C943F1524
:1001C0000C9423030C9422040C94B0140C947D061C
:1001D0000C9474020C94CC050C947D050C944F0483
:1001E0000C942E050C940A040C940E040C946E02CC
:1001F0000C9497040C9478020C9484040C9451058C
:100200000C948E060C94C9160C94FE040C946C0885
:100210000C94C9050C9485060C946D060C94070487
:100220000C9490020C947C020C94BF020C94040574
:100230000C94AB060C944B070C94AB070C94AF04D6
:100240000C94FB030C944C060C9418060C948A0234
:100250000C942809330909003C09090045090000EC
:1002600015090000180900001B0900001E09030001
:10027000230909008D0900007C0909006F090300AA
:100280007402600254020300050003000000220013
:10029000250028002B002E00310034000201000050
:1002A000050108010B0105050505070508080808F3
:1002B000020202020A0A08080404040401010101FE
:1002C00001010101030303030303030304070707F9
:1002D0000C0C0C0C0C0C0C0C02020202060606069E
:1002E000060606060B0B0B0B0B0B0B0B010210206B
:1002F000200808102040102040800201020108045C
:1003000002010102040810204080804020100804EF
:100310000201800402018040201008040201080448
:10032000020101020408102040800102040810208C
:10033000408000000A0B02090C0D0E08070304019F
:1003400000000000000000000000000000000000AD
:10035000000000000000000000000000000012117A
:10036000100000000000000000000000000000007D
:100370000000000000000000C91611241FBECFEFCE
:10038000DFEFDEBFCDBF00E00CBF15E0A0E0B2E0C4
:10039000E8EEF1E400E00BBF02C007900D92A63535
:1003A000B107D9F729E0A6E5B5E001C01D92AC3947
:1003B000B207E1F711E0CDEBD1E000E006C02197F4
:1003C0000109802FFE010E94F01ECC3BD10780E086
:1003D0000807A9F70E949A180C94F2200C940000C8
:1003E0004091720850917308E2E7F7E081E090E0F5
:1003F0004230510530F4109273081092720808953B
:10040000C901218121939C012F5F3F4F4217530760
:10041000B9F790937308809372080895282F30E0FD
:10042000F901EE5CFC4F9491F901E451FD4F4491C8
:100430002A553D4FF9012491222309F435C099230F
:1004400011F191509231F8F4E92FF0E08827E45D42
:10045000FD4F8F4F0C94F01E5D0261023E0255026B
:100460005902430264026A026E02740278027C023C
:100470008202860243028A029002940280918000E6
:100480008F7780938000E22FF0E0EE0FFF1FE4579C
:10049000FD4FA591B4918FB7F894EC91611148C0CC
:1004A00040954E234C938FBF0895809180008F7D9F
:1004B000E8CF80918000877FE4CF84B58F7784BDBB
:1004C000E2CF84B58F7DFBCF8091B0008F77809392
:1004D000B000D9CF8091B0008F7DF9CF809190008E
:1004E0008F7780939000CFCF809190008F7DF9CF50
:1004F00080919000877FF5CF8091A0008F778093C7
:10050000A000C1CF8091A0008F7DF9CF8091A00085
:10051000877FF5CF809120018F7780932001B3CF23
:10052000809120018F7DF9CF80912001877FF5CFC9
:100530004E2BB8CF3FB7F89480916E0790916F071C
:10054000A0917007B091710726B5A89B05C02F3FF9
:1005500019F00196A11DB11D3FBFBA2FA92F982FE9
:100560008827BC01CD01620F711D811D911D42E0E4
:10057000660F771F881F991F4A95D1F7089581E06C
:1005800090E008958A5A9F4F0895AF92BF92CF92FC
:10059000DF92EF92FF920F931F93CF93DF936C0143
:1005A0007B018B01040F151FEB015E01AE18BF0824
:1005B000C017D10759F06991D601ED91FC910190D6
:1005C000F081E02DC6011995892B79F7C501DF91DE
:1005D000CF911F910F91FF90EF90DF90CF90BF9040
:1005E000AF900895FC01538D448D252F30E0842F6A
:1005F00090E0821B930B541710F0CF96089501974B
:100600000895FC01918D828D981761F0A28DAE0F37
:10061000BF2FB11D5D968C91928D9F5F9F73928FBE
:1006200090E008958FEF9FEF0895FC01918D828DEA
:10063000981731F0828DE80FF11D858D90E00895B7
:100640008FEF9FEF0895FC01918D228D892F90E00F
:10065000805C9F4F821B91098F739927089584E7CF
:1006600098E00E94230321E0892B09F420E0822FE7
:100670000895FC01A48DA80FB92FB11DA35ABF4F37
:100680002C91848D90E001968F739927848FA68991
:10069000B7892C93A089B1898C91837080648C93E5
:1006A000938D848D981306C00288F389E02D808194
:1006B0008F7D80830895EF92FF920F931F93CF93C6
:1006C000DF93EC0181E0888F9B8D8C8D98131AC08D
:1006D000E889F989808185FF15C09FB7F894EE8974
:1006E000FF896083E889F9898081837080648083D1
:1006F0009FBF81E090E0DF91CF911F910F91FF901C
:10070000EF900895F62E0B8D10E00F5F1F4F0F73C3
:100710001127E02E8C8D8E110CC00FB607FCFACF7E
:10072000E889F989808185FFF5CFCE010E943903E0
:10073000F1CFEB8DEC0FFD2FF11DE35AFF4FF0824F
:100740009FB7F8940B8FEA89FB8980818062CFCFB5
:10075000CF93DF93EC01888D8823B9F0AA89BB89F8
:10076000E889F9898C9185FD03C0808186FD0DC0E3
:100770000FB607FCF7CF8C9185FFF2CF808185FF04
:10078000EDCFCE010E943903E9CFDF91CF910895DB
:1007900080E090E0892B29F00E942F0381110E94B4
:1007A000000080E090E0892B49F080E090E0892B08
:1007B00029F00E94000081110E94000080E090E07A
:1007C000892B49F080E090E0892B29F00E940000FD
:1007D00081110E94000080E090E0892B49F080E0C8
:1007E00090E0892B29F00E94000081110C940000F8
:1007F000089508950895FB011082118212821382D8
:10080000FA0110821182128213820895089590E0F5
:1008100080E0089590E080E0089508958DE195E0EE
:100820000895282F86E892E0A0E0BB2730E0220F51
:10083000331F820F931FA11DB11DABBFFC01879118
:1008400096910895CF93DF9300D01F92CDB7DEB776
:10085000FB014081518162817381FC01248121115E
:1008600004C040835183628373830F900F900F9075
:100870000F90DF91CF910895FC018481882351F07E
:1008800085819681A781B085FB0180839183A283B6
:10089000B383089580819181A281B381F5CFFC015A
:1008A00014820895FC0114820895CF93DF93FC0114
:1008B000EB0188819981AA81BB8121E02483858312
:1008C0009683A783B08780839183A283B383DF91CC
:1008D000CF910895CF93DF9300D01F92CDB7DEB7AD
:1008E000FB014081518162817381FC0124812111CE
:1008F00004C040835183628373830F900F900F90E5
:100900000F90DF91CF910895FC018481882351F0ED
:1009100085819681A781B085FB0180839183A28325
:10092000B383089580819181A281B381F5CFFC01C9
:1009300014820895CF93DF93FC01EB0188819981A4
:10094000AA81BB8121E0248385839683A783B08716
:1009500080839183A283B383DF91CF910895FC01BB
:10096000DB01808581111DC07C9111966C911197DE
:1009700012965C91129713964C91139714963C9192
:10098000149715962C91159716969C911697179675
:100990008C91708361835283438334832583968350
:1009A00087830895FC01DB0180858823F1F0718540
:1009B00062855385448535852685978580897C9316
:1009C00011966C93119712965C93129713964C9311
:1009D000139714963C93149715962C931597169687
:1009E0009C93169717968C9308957081618152811C
:1009F00043813481258196818781E1CFFC01108676
:100A00000895FC0110860895FC01DB017C9111968C
:100A10006C91119712965C91129713964C911397C3
:100A200014963C91149715962C91159716969C91B7
:100A3000169717968C91A1E0A087718762875387DC
:100A40004487358726879787808B7083618352839D
:100A5000438334832583968387830895FC01DB01D8
:100A6000808581111DC07C9111966C911197129611
:100A70005C91129713964C91139714963C9114978E
:100A800015962C91159716969C91169717968C9102
:100A90007083618352834383348325839683878362
:100AA0000895FC01DB0180858823F1F07185628562
:100AB0005385448535852685978580897C93119655
:100AC0006C93119712965C93129713964C9313970D
:100AD00014963C93149715962C93159716969C9301
:100AE000169717968C930895708161815281438186
:100AF0003481258196818781E1CFFC01DB017C91E6
:100B000011966C91119712965C91129713964C91D5
:100B1000139714963C91149715962C911597169649
:100B20009C91169717968C91A1E0A0877187628798
:100B300053874487358726879787808B70836183A7
:100B40005283438334832583968387830895FC01EE
:100B5000248121110AC0FB0140815181628173818E
:100B6000FC0140835183628373830895FC01848177
:100B7000882351F085819681A781B085FB01808310
:100B80009183A283B383089580819181A281B381EF
:100B9000F5CFFC0114820895CF93DF93FC01EB01A4
:100BA00088819981AA81BB8121E0248385839683F2
:100BB000A783B08780839183A283B383DF91CF9192
:100BC0000895FC01248121110AC0FB01408151815B
:100BD00062817381FC014083518362837383089532
:100BE000FC018481882351F085819681A781B0859D
:100BF000FB0180839183A283B383089580819181D7
:100C0000A281B381F5CFCF93DF93FC01EB01888103
:100C10009981AA81BB8121E0248385839683A78360
:100C2000B08780839183A283B383DF91CF910895AE
:100C3000FC012281211106C0FB0120813181FC01D0
:100C4000318320830895FC018281882331F08381E0
:100C50009481FB0191838083089580819181F9CFF4
:100C6000FC0112820895FC0112820895FC01DB014F
:100C70008D919C9121E0228394838383918380834F
:100C80000895FC012281211106C0FB0120813181E0
:100C9000FC01318320830895FC018281882331F097
:100CA00083819481FB019183808308958081918168
:100CB000F9CFFC01DB018D919C9121E0228394838B
:100CC0008383918380830895FC012181211104C0D5
:100CD000FB012081FC0120830895FC018181882390
:100CE00021F08281FB01808308958081FBCFFC018C
:100CF00011820895FC0111820895FC01DB018C91A1
:100D000091E09183828380830895FC0121812111E8
:100D100004C0FB012081FC0120830895FC01818136
:100D2000882321F08281FB01808308958081FBCF9D
:100D3000FC0111820895FC01DB018C9191E091830B
:100D4000828380830895FC018181882311F0828150
:100D5000089580810895EF92FF920F931F93CF9390
:100D6000DF9300D0CDB7DEB78C01DC015B96ED914F
:100D7000FC918281882309F47BC063817481F8012E
:100D80008681811183C0072E000C880B990B0E946D
:100D9000191ED80112966D937D938D939C93159790
:100DA000F801F784F1100DC020E030E040E251E49A
:100DB0000E94A51DD8011B966D937D938D939C93E6
:100DC0001E97F801418D528DFF2009F454C080898F
:100DD0009189A289B389FA012481211104C08083F9
:100DE0009183A283B383FF2009F44AC0D8015096AF
:100DF0006D917D918D919C915397FF24F39420E008
:100E000030E040EA52E40E94A51E87FDF12CF982F1
:100E10001A821B827801F4E1EF0EF11CCE010196DB
:100E20000E94A306D80155969C915597911102C036
:100E300054968C93F8010789108DC7010E94A30670
:100E400089831A821B82CE0101960E94A306D801D3
:100E500011969C911197911101C08C930F900F9056
:100E60000F90DF91CF911F910F91FF90EF90089518
:100E70006081718184CF83859485A585B685ABCF4C
:100E8000F8016385748585859685B7CF6781708500
:100E90008185928585CFDF92EF92FF920F931F930A
:100EA000CF93DF93CDB7DEB72F970FB6F894DEBFA1
:100EB0000FBECDBF8C0108960E94A3068F831886B3
:100EC0001986CE0107960E94A306DD24D3948D25B2
:100ED0008A871B861C86F801818D928D0E94A3064D
:100EE000F82EC80105960E94A306E82EC8010296B6
:100EF0000E94A3068E2989831A821B82CE01019645
:100F00000E94A306FD24F822FC821D821E82CE01CF
:100F100004960E94A306F82ECE010A960E94A3060C
:100F20008F218D871E861F86CE010D960E94A306F7
:100F3000F8019681911101C085832F960FB6F89420
:100F4000DEBF0FBECDBFDF91CF911F910F91FF90FC
:100F5000EF90DF900895CF93DF93EB010E94A306FB
:100F60008883DF91CF910895E0911002F0911102F2
:100F7000809109023097C9F1823051F128F4882319
:100F800079F1813069F108958330B1F0843069F5E9
:100F90008085882351F18185808382858183838543
:100FA00082838485838385858483868585838785FD
:100FB000868380898783089584818823B1F0858121
:100FC0009681A781B08580839183A283B38308959E
:100FD0008281882351F08381948191838083089555
:100FE0008181882311F08281808308950F931F935C
:100FF000833038F060E070E080E090E01F910F9166
:10100000089506E812E020E0332790E0880F991F4A
:10101000B0E0A0E0080F191F2A1F3B1F2BBFF801EB
:101020000791169160177107D0F400E812E020E0F4
:101030003327800F911FA21FB31FABBFFC01879105
:101040009691660F771F660F771F680F791FFB0158
:1010500025913491FB0132968491B901CECF80E085
:1010600060E070E0CACF0E94F607672B59F0853127
:1010700048F499E0899FF0011124E85EFB4F8085D8
:1010800090E0089590E080E008950F931F93CF9330
:101090008A010E94F607E82FCB010097B1F0E531F5
:1010A000A0F429E0E29FF0011124E85EFB4FC08527
:1010B000CC2359F00480F581E02DB80119958C2FCF
:1010C00090E0CF911F910F91089590E080E0F9CFCB
:1010D0009E5FFC0110820895EF92FF920F931F9381
:1010E000CF93DF93CDB7DEB7CC5FD2400FB6F89485
:1010F000DEBF0FBECDBFFB0130813F3708F03EE7BA
:10110000FB01BE016F5F7D4FDB0120E0231751F033
:10111000428151814527542745274D935D932F5F89
:101120003296F4CF30E0DE01119650E040E07D01D0
:101130004217530748F4FB0101911191BF010D9330
:101140001D934F5F5F4FF4CFD901AA0FBB1FAE0DA8
:10115000BF1D1D921C92DC01BE5F41E04C93C1504B
:10116000DE4F39832883CF5FD140119680E092E033
:10117000F70101900D920197E1F7C450DD4F0FB6D2
:10118000F894DEBF0FBECDBFDF91CF911F910F91BD
:10119000FF90EF900895EF92FF920F931F93CF93DC
:1011A000DF93CDB7DEB7CC5FD2400FB6F894DEBF89
:1011B0000FBECDBFFB0130813F3708F03EE7FB019A
:1011C000BE016F5F7D4FDB0120E0231751F04281AC
:1011D00051814527542745274D935D932F5F3296C4
:1011E000F4CF30E0DE01119650E040E07D0142177F
:1011F000530748F4FB0101911191BF010D931D9319
:101200004F5F5F4FF4CFA901440F551F4E0D5F1D77
:10121000FA0111821082C150DE4F39832883CF5FDB
:10122000D14020E032E0F701DC0101900D92215025
:101230003040D9F7C450DD4F0FB6F894DEBF0FBE73
:10124000CDBFDF91CF911F910F91FF90EF90089547
:101250008F5F9E4FFC0110820895FC0121812111B6
:1012600008C021E0FB013081311101C020E0FC0108
:1012700020830895FC0181E0DB019C91911101C064
:1012800080E091E0918382838083089520917207AA
:10129000209530E0F901E85EFC4F90819095285E42
:1012A0003D4FD9018C9140915A0550915B054250B8
:1012B0005109E2E7F7E031969F01225737402417A2
:1012C000350770F420819227292F30E0D901A85EDC
:1012D000BC4F9C919827285E3D4FD9018C91EBCF54
:1012E000089523E030E030935B0520935A05E2E750
:1012F000F7E090913B079083805881836283089543
:101300000F931F93582F577001E010E020E030E05A
:1013100004C0000F111F221F331F5A95D2F723E07C
:10132000969587952A95E1F79927E0914507F091E1
:101330004607662321F0E0914B07F0914C07E80F38
:10134000F91F8081442329F0082B00831F910F91FE
:10135000089500950823F9CF2F923F924F925F9204
:101360006F927F928F929F92AF92BF92CF92DF92B5
:10137000EF92FF920F931F93CF93DF93CDB7DEB71A
:10138000C655D1090FB6F894DEBF0FBECDBF10E031
:1013900000E0F801EE0FFF1FE553F94F0190F081D7
:1013A000E02D309749F041E08081811101C040E09B
:1013B00060E0C8010E9480090F5F1F4F08331105CC
:1013C00041F7E0903C07F0903D072BE836E02D9682
:1013D0003FAF2EAF2D978701005C1F4FF701D9015A
:1013E0008D919D919D01009729F0DC018D919C913B
:1013F0009183808332960E171F0789F7D12CC12C59
:10140000F601EE0FFF1FE55EF94F0190F081E02D30
:10141000309749F041E08081811101C040E061E0F6
:10142000C6010E948009BFEFCB1ADB0AE8E3CE16A3
:10143000D10431F74BED55E0E0914807F0914907B1
:101440009F01205C3F4FDA018D919D91AD01009786
:1014500029F0DC018D919C91918380833296E21773
:10146000F30789F7E3EBF5E02F96FFAFEEAF2F9789
:10147000F80128E6E20EF11C23EB35E0D9018D914D
:101480009D919D01009729F0DC018D919C919183A4
:1014900080833296EE16FF0689F7EBE8F5E0619659
:1014A000FFAFEEAF6197E0913F07F09140079F01DA
:1014B000205B3F4F0BE815E0D8018D919D918D0188
:1014C000009749F0DC014D915D916D917C914083D5
:1014D0005183628373833496E217F30769F7E3E677
:1014E000F5E02B96FFAFEEAF2B97E0914207F0911E
:1014F00043079F0120563F4F83E695E0DC01CD90E6
:10150000DD90CD01C114D104F1F0D601EC9011961B
:10151000FC90119712960C91129713961C911397A9
:1015200014967C91149715966C91159716965C916C
:10153000169717964C91E082F1820283138374838D
:1015400065835683478338962E173F07B9F68091F7
:10155000610590916205DC01ED91FC910084F185BB
:10156000E02D199518161906B4F58091720890911E
:1015700073088F3F910509F070F580916105909196
:101580006205DC01ED91FC910284F385E02D199553
:101590002091720830917308A9014F5F5F4F5093FB
:1015A0007308409372082E58384FF90180832FB783
:1015B000F89480916A0790916B07A0916C07B091A5
:1015C0006D072FBF8093560590935705A09358053C
:1015D000B0935905BCCF40917208509173084115E2
:1015E000510509F466C09091720780913B079817E6
:1015F00019F00E94F001EFCF4230510508F462C1AA
:101600008091730764E0862E912CA12CB12C81343B
:1016100009F168F4813030F08730B8F08F508230B3
:1016200008F41AC188248A94982C540113C0E9E064
:101630008E2E912CA12CB12C833461F008F430C192
:10164000843409F417C1853469F7F8E08F2E912CA2
:10165000A12CB12C61E086169606A104B10448F6CF
:1016600081149104A104B10429F08401481559059D
:1016700008F02CC12FB7F89480916A0790916B07FE
:10168000A0916C07B0916D072FBF40915605509106
:1016900057056091580570915905841B950BA60B51
:1016A000B70B0997A105B10520F0109273081092AD
:1016B0007208409145075091460730E020E0F9015B
:1016C000EE0FFF1FE553F94F0190F081E02D3097A9
:1016D00099F0D90183E0B695A7958A95E1F7A40F13
:1016E000B51F8C9190E0622F677002C09595879529
:1016F0006A95E2F7817080832F5F3F4F2833310571
:10170000F1F680913C0790913D07BC01605C7F4FF2
:10171000DC012D96EEADFFAD2D97219131912D96E7
:10172000FFAFEEAF2D972115310531F04D915C9152
:101730001197F9015183408312966A177B0749F785
:10174000FB0188599F4F2F96AEADBFAD2F974D919E
:101750005D912F96BFAFAEAF2F974115510529F080
:1017600020813181DA012D933C9332968E179F07A9
:1017700051F7E0913F07F0914007CF01805B9F4F09
:101780006196AEADBFAD61972D913D916196BFAFB2
:10179000AEAF61972115310551F0408151816281D1
:1017A0007381D9014D935D936D937C931397349618
:1017B0008E179F0729F7E0914207F0914307CF0169
:1017C00080569F4F2B96AEADBFAD2B97ED90FD9001
:1017D0002B96BFAFAEAF2B97E114F104F1F000816F
:1017E0001181728163815481458136812781D701BE
:1017F0000C9311961C93119712967C931297139643
:101800006C93139714965C93149715964C931597B5
:1018100016963C93169717962C9338968E179F071B
:1018200089F6CA5ADF4F0FB6F894DEBF0FBECDBFA0
:10183000DF91CF911F910F91FF90EF90DF90CF90AC
:10184000BF90AF909F908F907F906F905F904F90E0
:101850003F902F900C94B4074730510598F1809039
:101860007807912CB12CA12CF9E08F0E911CA11CB2
:10187000B11CF0CE4430510528F12091740730910D
:101880007507322723273227A3E0B0E00E94F81E15
:101890004B015C0126E0820E911CA11CB11CDACE2A
:1018A0004830510578F08090780790907907982417
:1018B00089249824B12CA12C3AE0830E911CA11C00
:1018C000B11CC8CE812C912C5401C4CEC09073079A
:1018D0008FEB8C0D853000F190925B0580925A055C
:1018E0000E944609B501A4014250510961097109DC
:1018F0004E58584FDA012C91B1E08B1A9108A1088B
:10190000B108F401EE58F84F3081232732272327FE
:101910002817390709F06DCE0250110910935B05A5
:1019200000935A05609074077090750776246724B9
:101930007624D090740700917607109177071027CE
:1019400001271027E0907507F0907607FE24EF241A
:10195000FE24B0907707EFE0CE1609F4B7C5EC157A
:10196000D8F1F3E0CF1609F4A0C1FC1568F021E02E
:10197000C21609F434C432E0C31609F4BAC461E0F3
:1019800070E08C2D90E025C045E0C41609F47FC5B9
:10199000C41608F437C556E0C512F1CF20913E07B2
:1019A0008091410790E0880F991FE22FF0E08E0FA1
:1019B0009F1F40914407B4E04B9FA0011124480FA2
:1019C000591F6416750608F463C062E070E086E093
:1019D00090E00E94710969C062E4C61609F419C753
:1019E0006C1558F170E1C71609F482C281E4C8127F
:1019F000C6CFC092730783E0809374078EE780930D
:101A0000750780E00E941104909376078093770712
:101A100081E00E941104909378078093790782E017
:101A20000E94110490937A0780937B078AE090E0EC
:101A300090935B0580935A0538C094E4C91609F465
:101A40006FC6C91608F4F7C5A5E4CA1298CFC092AC
:101A500073078EE78093740781E2E5E2F5E09E016B
:101A60002F5F3F4FD90101900D928A95E1F7A5E7CD
:101A7000B7E0A901CA01821B930BFA016191AF0182
:101A8000FD01E257F740662309F40CC76D93F2CFCE
:101A90006E167F06D8F4660C771CE0913C07F09137
:101AA0003D07E60DF71D1183008380915A05909143
:101AB0005B0502968130914008F466C580917307FA
:101AC00064E070E090E00E9471095EC568167906D6
:101AD000F0F5A80170E060E080913F079091400729
:101AE00060FC1CC093012E1B3F0BF901EE0FFF1F82
:101AF000EC7FF370E80FF91F80819181A281B3819F
:101B0000AA27BB27BA0155274427842B952BA62B40
:101B1000B72B80839183A283B383C7CFE095F095E1
:101B2000E60DF71DEE0FFF1FEC7FF370E80FF91FB6
:101B3000008111812281338100271127042B152B6D
:101B4000262B372B0083118322833383AECF93015F
:101B5000237033274801B12CA12CC12CD12C760144
:101B6000E0914207F09143072115310549F5681AC4
:101B7000790A660C771C38EF632237E07322E60D92
:101B8000F71D5080618072801381B481A58194011A
:101B900040E050E060E070E080E090E000E30E9410
:101BA000661F25292083632A6182742A7282152B7D
:101BB0001383B62BB483A72BA5838683978375CF16
:101BC0002130310541F54FEF641A740A681A790A19
:101BD000660C771C58EF652257E07522E60DF71D5D
:101BE0005080618072801381B681A7819401A50124
:101BF000B601C70100E20E94661F522A5082632A82
:101C00006182742A7282152B1383648375838B2BF4
:101C100086839A2BD3CF2230310529F562E0660EF8
:101C2000711C681A790A660C771C78EF672277E0D6
:101C30007722E60DF71D5080618074801581B68192
:101C4000A7819401A501B601C70100E10E94661FAA
:101C5000522A5082632A618242835383762A748295
:101C6000172B1583D4CFA3E06A0E711C681A790A6A
:101C7000660C771CB8EF6B22B7E07B22E60DF71DF0
:101C8000528143813481258196818781808291822E
:101C90005A2952834B2943833C2934832D29258398
:101CA0009E2996838F29878300CFC801019763E01F
:101CB00070E08D379105C8F44301800E911E20918C
:101CC0003E07E0914107F0E0EE0FFF1FE20FF11D2C
:101CD0008091440734E0839FC00111248E0F9F1F21
:101CE0008816990628F062E070E083E090E071CEFB
:101CF000000F111F0D5F1F4F10935B0500935A05D6
:101D000032E7E32E37E0F32ED7011196CD0182574B
:101D100097408017910710F41C92F7CF83E08093CF
:101D20007307035000937407C0904207D090430795
:101D3000A0903F07B0904007A0913C07B0913D07AD
:101D4000BEAFADAFA22FB0E02796BFAFAEAF279723
:101D500083E090E01C012E1A3F0A2D01409450941C
:101D60008614970409F4A1CE2796AEADBFAD279790
:101D70006A167B0660F49301220F331FADADBEAD32
:101D80002A0F3B1FD9018C9111963C911CC06E16F5
:101D90007F0680F560FC24C0C3012796AEADBFADC1
:101DA00027978A1B9B0B880F991F8C7F93708A0D36
:101DB0009B1DDC014D915D916D917C91AB0166277E
:101DC0007727842F352FD70113963C9313971496BA
:101DD0008C93B2E0EB0EF11C2FEF621A720AC0CFA7
:101DE0009201260D371D220F331F2C7F33702A0DD1
:101DF0003B1DC8CF8301037011270115110521F583
:101E000083010E1B1F0B000F111F087F17700C0D95
:101E10001D1DD8012C9111963C91119712964C9151
:101E2000129713965C91139714966C9114971596CC
:101E30007C91159716968C91169717969C9100E3B6
:101E40000E94811F822FBFCF0130110511F50E1B9B
:101E50001F0B060D171D000F111F087F17700C0DAB
:101E60001D1DD8012C9111963C91119712964C9101
:101E7000129713965C91139714966C91149715967C
:101E80007C91159716968C91169717969C9100E267
:101E9000D7CF0230110511F50E1B1F0B060D171DB4
:101EA000000F111F087F17700C0D1D1DD8012C91FC
:101EB00011963C91119712964C91129713965C9142
:101EC000139714966C91149715967C911597169606
:101ED0008C91169717969C9100E1B2CF9101260D37
:101EE000371D220F331F287F37702C0D3D1D4ACF21
:101EF000C80101978B37910540F420917807C801FC
:101F0000880F991F2817190629F063E070E080E117
:101F100090E05FCDD301A00FB11F2796BFAFAEAF4A
:101F2000279720903E07A0914107B0E0AA0FBB1F62
:101F3000312CA20DB31D80914407E4E08E9FC001B7
:101F400011248A0F9B1F2796EEADFFAD2797E81748
:101F5000F90718F062E070E0DACF86E090E0909345
:101F60005B0580935A05C092730770927407609264
:101F700075071092760700937707E0904207F0907C
:101F80004307E0913F07F09140072996FFAFEEAF7E
:101F90002997E0913C07F0913D076396FFAFEEAFC4
:101FA000639722E7422E27E0522E83E090E0FC0167
:101FB000EA1BFB0B6596FFAFEEAF6597F101E0956D
:101FC000F0956796FFAFEEAF67972796EEADFFAD42
:101FD00027976E167F0609F4D7C2F20147818085E4
:101FE000142F082F6214730490F4F301EE0FFF1FF7
:101FF00063962EAD3FAD6397E20FF31F118300830D
:102000005FEF651A750A62E0460E511CDECF6A1654
:102010007B06D8F5A80170E060E060FC1FC0F3010A
:10202000E219F309EE0FFF1FEC7FF37029968EADD6
:102030009FAD2997E80FF91F00811181228133811B
:1020400022273327BA0155274427402B512B622BD7
:10205000732B4083518362837383D2CF6796EEAD37
:10206000FFAD6797E60DF71DEE0FFF1FEC7FF370D6
:1020700029962EAD3FAD2997E20FF31F0081118104
:102080002281338100271127E0CFF301E370FF277E
:10209000980150E040E060E070E0CB012DAF3EAF32
:1020A0004FAF21965FAF219722966FAF229723966D
:1020B0007FAF239724968FAF249725969FAF2597C0
:1020C000309739F5F301EA1BFB0BEE0FFF1FE87F9A
:1020D000F770EE0DFF1D9080A180B280C380D48088
:1020E000158140E050E060E070E080E090E000E3C7
:1020F0000E94661F292920833A2931834B29428374
:102100005C295383D62AD482172B15838683978321
:1021100077CFE130F10549F5EA1BFB0BE60DF71D22
:10212000EE0FFF1FE87FF770EE0DFF1D9080A1807E
:10213000B280C380D68017812DAD3EAD40E050E027
:1021400060E070E080E090E000E20E94661F2929D4
:1021500020833A2931834B294283C52AC382648371
:1021600075838D298683912BD2CFE230F10531F52D
:10217000EA1BFB0BE60DF71DEE0FFF1FE87FF77064
:10218000EE0DFF1D9080A180B480C580D6801781A0
:102190002DAD3EAD40E050E060E070E080E090E0CA
:1021A00000E10E94661F292920833A293183428356
:1021B0005383B62AB482C72AC582D3CF6596EEADC3
:1021C000FFAD6597E60DF71DEE0FFF1FE87FF77077
:1021D000EE0DFF1D3DAD30834EAD418311CFC801E3
:1021E0000197803D974028F063E070E081E090E047
:1021F000F0CB20914707C301800F911F62E070E090
:102200002817190698F3C80123E0969587952A9513
:10221000E1F7980127703327232B91F403969093CD
:102220005B0580935A0580915A0590915B05E2E722
:10223000F7E08130A1E09A0728F064E070E0D6CFA3
:102240000496EDCF31969F01225737402817390762
:1022500010F41082F7CF91E090937307835080932E
:102260007407A0904507B090460770E060E020E05A
:10227000C12CD12C7601C39416012701022E04C073
:10228000220C331C441C551C0A94D2F7FB0143E07A
:10229000F695E7954A95E1F7EB58F84F3081A301A1
:1022A000A3E056954795AA95E1F74F7155274A0D3A
:1022B0005B1DDA014C9150E0B62DB77002C0559508
:1022C0004795BA95E2F7822D40FF0FC0832B80839C
:1022D0002F5F283009F420E0EFEF6E1A7E0A6F5F5F
:1022E0007F4F0617170741F6E0CB809538233083E0
:1022F000EFCFC801019763E070E0803D974030F573
:1023000020914D07C301800F911F62E070E02817F4
:102310001906E0F0C80133E0969587953A95E1F704
:10232000980127703327232BA1F4039690935B0524
:1023300080935A0580915A0590915B05E2E7F7E09A
:10234000813021E0920738F064E070E082E090E0B4
:1023500040CB0496EBCF31969F0122573740281788
:10236000390710F41082F7CF92E0909373078350EF
:102370008093740760914B0770914C0750E040E0E8
:10238000B12CC12CD12C7601C394160127010B2C42
:1023900004C0220C331C441C551C0A94D2F7FA01C9
:1023A00083E0F695E7958A95E1F7EB58F84FA08022
:1023B000930193E0369527959A95E1F7260F372FED
:1023C000311DD9012C9130E0B62DB77002C0359582
:1023D0002795BA95E2F7822D20FF10C08A298083C5
:1023E000B394E8E0BE1201C0B12CFFEF6F1A7F0A70
:1023F0004F5F5F4F0417150741F657CB8095A82212
:10240000A082EECFC801019763E070E08D3791059F
:1024100050F420914A07C301800F911F2817190615
:1024200028F462E070E084E090E0D3CAC801880F2D
:10243000991F039690935B0580935A05E2E7F7E0B6
:10244000DF0111969D01225737402817390710F4F4
:102450001C92F7CF94E09093730783508093740796
:10246000660C771CA0914807B0914907A60DB71DCF
:102470000150110932960F3F100709F416CB8C91C9
:1024800011969C911197129691838283F1CF011539
:102490003FEF130729F063E070E00115110549F4DF
:1024A000809147078150990B8615970528F462E0C3
:1024B00070E085E090E08DCA41E001151F4F09F002
:1024C00040E060E0C3010E948009EFCA9801E3E0A8
:1024D00036952795EA95E1F7822FA8014770552791
:1024E000452B11F081E0820F980121503109203BEA
:1024F000374020F490917807981729F063E070E056
:102500008FE090E066CA20914707C301800F911FBA
:102510002817190618F462E070E0F2CF86E090E028
:1025200090935B0580935A058FE0809373077092B8
:102530007407609275071093760700937707F12C64
:10254000E12CD12CF70173E0F695E7957A95E1F748
:10255000EE58F84F478150E00D2C02C05595479535
:102560000A94E2F7417060E0C3018E0D9F1D0E9446
:102570008009D39478E0D71201C0D12C8FEFE81AEC
:10258000F80A0E151F05F1F600915A0510915B052A
:10259000780122E0E20EF11CF0925B05E0925A0510
:1025A0000E944609F801EE58F84F9083818380918C
:1025B000600587FD11C061E00E940E0280915C05FC
:1025C00090915D058230910538F0880F991F880F32
:1025D000991F05970197F1F7809161059091620528
:1025E000DC01ED91FC910280F381E02DA70162E70F
:1025F00077E019958091610590916205DC01ED917C
:10260000FC910680F781E02D199580915C059091F1
:102610005D058230910538F0880F991F880F991F4A
:1026200005970197F1F78091600587FD3EC860E04E
:102630000E940E023AC892E09D1508F466C0A09070
:102640007707B09078078D2D0E941104009709F448
:102650005CC0E816F90608F058C0BA24AB24BA24C6
:10266000A816B90608F051C0AE14BF0408F44DC056
:1026700037016DE7862E67E0962E10E000E0B3018B
:102680008D2D0E9433089C01200F311F255F3F4F85
:102690002130314098F4892B59F0A401B3018D2DDC
:1026A0000E944508009721F0880E991E080F191FF7
:1026B000C30101967301A816B90628F5C8010B9647
:1026C00090935B0580935A0583E4809373078EE7AC
:1026D00080937407F0927507E0927607809158070F
:1026E0009091590720915A0730915B0730937707F3
:1026F000209378079093790780937A0710937B074C
:1027000000937C07D2C93C01BACF83E090E090935C
:102710005B0580935A0583E48093730781E876C054
:10272000B5E16B16710408F068C0C301880F991FEA
:10273000860D971DA6E7B7E08E010F5F1F4FF801CA
:102740009F01201B310B2817390718F42D91219375
:10275000F7CFB12CA12C512CD12CC12C4BE0E42E65
:10276000F12C6A147B0431F1F80140808180828170
:10277000982C882EB401842D0E943308009791F084
:102780008E0D9F1D81309140A8F4A7014E58584FDF
:10279000B401842D0E944508009721F0E80EF91E2F
:1027A000C80ED91E0D5F1F4F5A2C95012F5F3F4F4A
:1027B0005901D7CFF0925B05E0925A0584E48093EB
:1027C00073078EE78093740710927507509276070F
:1027D000809158079091590720915A0730915B07D3
:1027E00030937707209378079093790780937A073F
:1027F000D0927B07C0927C0758C983E090E0909309
:102800005B0580935A05C092730782E88093740732
:102810004CC90091780710917907102701271027DC
:10282000093F110548F083E090E090935B058093A9
:102830005A05C092730772CFB7018D2D0E94F6071B
:10284000282FCB01009751F1253140F530E049E0C8
:10285000429FF001439FF00D1124E85EFB4FBB2027
:10286000C1F020852223E1F02017110609F0C0F401
:102870000190F081E02D6AE777E019958EE723E07B
:1028800030E030935B0520935A0592E490937307F0
:10289000BDCF0280F381E02D1995F0CF81E8EFCF15
:1028A00082E8EDCFEE58F84F2DEA2083FC01EE5878
:1028B000F84F2EED24830596BBC80F931F93CF933B
:1028C000DF938B01FC01FE5F2081222351F19C01EB
:1028D0002F5F3D4F22503E4FD9012D913C912F3714
:1028E000310510F02EE730E0622FE80128834081A7
:1028F000442311F08F5F9D4FFC01D80180E08617C3
:1029000090F49081329611969C931197AF014250AA
:102910005109EA01998112969C9312978F5F129642
:10292000EECF9C01D7CF220F331F2F5F3F4F2D3F9C
:10293000310579F04DEF50E0421B530B70E060E041
:10294000C801820F931FDF91CF911F910F910C94BB
:10295000EB20DF91CF911F910F9108950C94592096
:102960000C9459200C9459200F931F93CF93DF930D
:10297000CDB7DEB7C150D1400FB6F894DEBF0FBE61
:10298000CDBF8C01FB0140814F3708F04EE750E08E
:10299000C050DF4F59834883C050D1406F5F7F4F95
:1029A000CE0101960E94E220C050DF4FE881F981FC
:1029B000C050D14081E090E08C0F9D1FE80FF91FBF
:1029C000108281E091E0FE013196D80101900D92D4
:1029D0000197E1F7CF5FDE4F0FB6F894DEBF0FBE71
:1029E000CDBFDF91CF911F910F9108950F931F934A
:1029F000CF93DF93CDB7DEB7C150D1400FB6F89477
:102A0000DEBF0FBECDBF8C01FB0140814F3708F008
:102A10004EE750E0C050DF4F59834883C050D1404B
:102A20006F5F7F4FCE0101960E94E220C050DF4FC2
:102A3000E881F981C050D14081E090E08C0F9D1F6A
:102A4000E80FF91F1082F801EF5FFE4F81E08083ED
:102A5000D801AE5FBE4F81E091E0FE01319601905A
:102A60000D920197E1F7CF5FDE4F0FB6F894DEBF0E
:102A70000FBECDBFDF91CF911F910F910895FF92AF
:102A80000F931F93CF93DF938B01FC01EF5FFE4FFA
:102A90002081222319F19C012E5F3E4F21503F4F90
:102AA000D901CD91DC91CF37D10510F0CEE7D0E040
:102AB000FC2ED801CC93C11113C04EE750E04C1B43
:102AC0005D0BCE01019670E060E0800F911FDF91F9
:102AD000CF911F910F91FF900C94EB209C01DECFC2
:102AE0002081BC01222311F06E5F7E4FAE01C80130
:102AF00001960E94E2208EE7F812DFCFDF91CF919E
:102B00001F910F91FF9008951F920F920FB60F9291
:102B100011242F933F938F939F93AF93BF938091F3
:102B20006A0790916B07A0916C07B0916D07309187
:102B3000690723E0230F2D3758F50196A11DB11D1C
:102B40002093690780936A0790936B07A0936C07A3
:102B5000B0936D0780916E0790916F07A0917007F9
:102B6000B09171070196A11DB11D80936E079093DE
:102B70006F07A0937007B0937107BF91AF919F91BA
:102B80008F913F912F910F900FBE0F901F9018952E
:102B900026E8230F0296A11DB11DD2CF1F920F92DE
:102BA0000FB60F9211240BB60F922F933F934F93B2
:102BB0005F936F937F938F939F93AF93BF93EF93A5
:102BC000FF9384E798E00E943903FF91EF91BF9152
:102BD000AF919F918F917F916F915F914F913F91B5
:102BE0002F910F900BBE0F900FBE0F901F90189556
:102BF0001F920F920FB60F9211240BB60F922F93C4
:102C00008F939F93EF93FF93E0918408F091850851
:102C10008081E0918A08F0918B0882FD1DC090812F
:102C200080918D088F5F8F7320918E08821741F0FD
:102C3000E0918D08F0E0EC58F74F958F80938D0868
:102C4000FF91EF919F918F912F910F900BBE0F905D
:102C50000FBE0F901F9018958081F2CF20919009A0
:102C60003091910940919209509193096091940992
:102C7000709195098091960990919709A1E00E9421
:102C8000A51F209390093093910940939209509386
:102C90009309609394097093950980939609909392
:102CA00097090E94B11F31F410928D0910928E097C
:102CB00010928F09209185093091860940918709EA
:102CC000509188096091890970918A0980918B09D6
:102CD00090918C09A1E00E94A51F20938509309353
:102CE00086094093870950938809609389097093F6
:102CF0008A0980938B0990938C090E94B11FB1F4CB
:102D000080E090E0ACE5B2E480937C0990937D098B
:102D1000A0937E09B0937F091092800910928109D7
:102D200010928209109283091092840920917409EB
:102D30003091750940917609509177096091780931
:102D40007091790980917A0990917B09A1E00E94A4
:102D5000A51F209374093093750940937609509309
:102D60007709609378097093790980937A09909331
:102D70007B090E94B11F61F486E292E09093700992
:102D800080936F0910927109109273091092720961
:102D90000895109277081092760888EE93E0A0E0EC
:102DA000B0E08093780890937908A0937A08B09364
:102DB0007B0889ED94E0909375088093740885EC06
:102DC00090E0909381088093800884EC90E0909349
:102DD00083088093820880EC90E09093850880932C
:102DE000840881EC90E0909387088093860882ECB9
:102DF00090E0909389088093880886EC90E0909307
:102E00008B0880938A0810928D0810928E08109279
:102E10008F08109290080E942E160E942E160E9473
:102E20002E160E942E162091900930919109409102
:102E3000920950919309609194097091950980913C
:102E4000960990919709A1E00E94A51F20939009EF
:102E50003093910940939209509393096093940998
:102E60007093950980939609909397090E94B11FDA
:102E700031F410928D0910928E0910928F092091D1
:102E800085093091860940918709509188096091A0
:102E9000890970918A0980918B0990918C09A1E030
:102EA0000E94A51F209385093093860940938709C6
:102EB000509388096093890970938A0980938B09DC
:102EC00090938C090E94B11FB1F480E090E0ACE5D2
:102ED000B2E480937C0990937D09A0937E09B0931E
:102EE0007F09109280091092810910928209109234
:102EF00083091092840920917409309175094091D9
:102F000076095091770960917809709179098091DB
:102F10007A0990917B09A1E00E94A51F2093740972
:102F20003093750940937609509377096093780937
:102F30007093790980937A0990937B090E94B11F5D
:102F400061F486E292E09093700980936F09109289
:102F50007109109273091092720983E195E09093C0
:102F60001209809311098FEF94E0909314098093D4
:102F70001309109215091092160910921709109250
:102F800018091092190910921A0910921B0910922F
:102F90001C0910921D098CE791E090931F09809302
:102FA0001E0910922009109222091092210980E036
:102FB00090E0A8E4B1E48093230990932409A093BE
:102FC0002509B0932609109227091092280910921A
:102FD000290910922A0910922B098DE899E0909303
:102FE0002D0980932C0921E020932E0910922F099E
:102FF000109230094BEE54E050933209409331095E
:103000001092330910923409109235091092360942
:1030100010923709109238091092390910923A0922
:1030200010923B0910923C0910923D0910923E0902
:1030300010923F09109240091092410910924209E2
:1030400010924309109244091092450910924609C2
:103050001092470990934909809348098CE799E0B9
:1030600090934B0980934A098FE699E090934D091C
:1030700080934C0920934E0910924F0910925009E9
:1030800023E139E0309364092093630921E339E0B7
:10309000309366092093650926E435E030935209A0
:1030A000209351091092530921EE2093540925EFE2
:1030B0002093550925E02093560910925709109244
:1030C00058091092590910925A0941E050E060E005
:1030D00070E040935B0950935C0960935D097093C5
:1030E0005E0923E639E03093600920935F0922E00E
:1030F00030E030936209209361092CE435E030938D
:1031000068092093670921E535E030936A09209327
:10311000690921E539E030936C0920936B0921E0BE
:1031200030E030936E0920936D09909311028093E3
:1031300010020895CF93DF93CDB7DEB764970FB633
:10314000F894DEBF0FBECDBF789484B5826084BD95
:1031500084B5816084BD85B5826085BD85B581609B
:1031600085BD80916E00816080936E001092810019
:1031700080918100826080938100809181008160D4
:103180008093810080918000816080938000809195
:10319000B10084608093B1008091B0008160809321
:1031A000B0008091910082608093910080919100A5
:1031B0008160809391008091900081608093900065
:1031C0008091A10082608093A1008091A100816024
:1031D0008093A1008091A00081608093A0008091E5
:1031E000210182608093210180912101816080937F
:1031F00021018091200181608093200180917A00DB
:10320000846080937A0080917A00826080937A0053
:1032100080917A00816080937A0080917A00806842
:1032200080937A001092C100209110023091110217
:10323000509108024091090280910A0290910B027C
:10324000E0910C026E2F70E021153105D9F051305C
:1032500009F4C8C008F4DEC05230A1F4433009F4C8
:10326000BBC0443041F0423069F4880F991FFC0123
:10327000ED54FA4F05C0880F991FFC01ED59FA4F24
:103280003183208320916D0930916E093A8B298B0F
:1032900080916B0990916C099C8B8B8B9A838983AD
:1032A0001A861986312C212C712C812C912C1B8291
:1032B0001C82612C512C412CA989BA89E985FA8597
:1032C000AE17BF0709F4C7C0A981BA8150968D9186
:1032D0009C915197280E391E1296DC9012971396E6
:1032E000EC9013971496FC90149715960C911597E3
:1032F00016961C9116971796BC91E981FA81C084A5
:10330000B1842D2D3E2D4F2D502F612F7B2F8C2DD5
:103310009B2DA0E00E94B11F09F054F4D12C6DE266
:10332000E62E71E3F72E01E010E0B0E0C12CB12CE5
:10333000DD82EF82FB860C871D87BE87CF86B88A29
:10334000272D382D492D5B816C81762D852D942D6F
:10335000A0E00E94B11F59F1AD80BF80CB84DC8416
:10336000ED84FE840F851889272D382D492D5B812A
:103370006C81762D852D942D0E94071FD22EE32E71
:10338000F42E052F162FB72FF82FE92F7A2C8B2C20
:103390009C2C2C852B833D853C836E845F844888E0
:1033A0002D2D3E2DA0E00E94B11F09F04BC0898554
:1033B0009A8501969A878987A981BA815296BA839C
:1033C000A9837D808F809B84BC85BB83ED85EC8346
:1033D0006E845F84488870CF880F991FFC01E55781
:1033E000FA4F4ECF442349F0423009F04BCF880FBB
:1033F000991FFC01E557F94F43CFFC0103E0EE0FA5
:10340000FF1F0A95E1F7E60FF71FEE0FFF1FE553C9
:10341000F94F36CF442349F0423009F033CF880FBB
:10342000991FFC01E552FA4F2BCFFC01A3E0EE0FF0
:10343000FF1FAA95E1F7E60FF71FEE0FFF1FE55EEE
:10344000F94F1ECFDD82EF82FB860C871D87BE877A
:10345000FF87E88B81CF272D382D492D5B816C812B
:10346000762D852D942DA0E00E94B11F59F4712C6A
:103470004DE2842E51E3952EF1E0FB831C82612CFA
:10348000512C412C70920002809201029092020213
:103490002B81209303023C81309304026092050249
:1034A0005092060240920702211480E4380608F088
:1034B000A3C0C101880F991F009709F4A0C00E9402
:1034C000BD1F9E838D8390935707809356072114C9
:1034D00090E2390608F096C0C101880F991F880F45
:1034E000991F009709F491C00E94BD1F98878F8390
:1034F00090935D0780935C0730925F0720925E0790
:103500001A821982312C212CA985BA85E981FA8188
:10351000AE17BF0709F489C0AB89BC891296DC904D
:1035200012971396EC9013971496FC901497159697
:103530000C91159716961C9116971796BC91EB89CE
:10354000FC89C084B1842D2D3E2D4F2D502F612F2D
:103550007B2F8C2D9B2DA0E00E94B11F09F044F41D
:10356000272D382D492D5B816C81762D852D942D4D
:10357000A72CB82CC92CDB80EC80F62C052D142D43
:103580000E94091FB22EA32E742F652FAB89BC8910
:1035900050964D915C918A01000F111F7101EE0C44
:1035A000FF1C6101CC0CDD1CCC0CDD1C90E080E02C
:1035B0008017910769F1AB89BC891E96ED91FC914A
:1035C000E80FF91F20813181FC01EE0DFF1DAD8157
:1035D000BE81EA0FFB1F31832083FC01EE0FFF1F2A
:1035E000EC0DFD1D2F813885E20FF31FB082A18203
:1035F000728363830296DCCF8FEF9FEF60CF81E011
:1036000090E05DCF8FEF9FEF6FCF81E090E06CCFC8
:10361000240E351E89819A8101969A838983AB890C
:10362000BC895296BC8BAB8B6FCFE0918408F09134
:10363000850882E08083E0918008F0918108108203
:10364000E0918208F091830880E1808310928C08D9
:10365000E0918808F091890886E08083E0918608EF
:10366000F0918708808180618083E0918608F091E5
:103670008708808188608083E0918608F0918708C0
:10368000808180688083E0918608F091870880813E
:103690008F7D808384E798E0909362058093610535
:1036A0008FEF809360058EEE92E090935F0580939C
:1036B0005E0581E49AE090935D0580935C0581E06E
:1036C00080933B0784E380933E0784E18093410726
:1036D0008093440788E38093470790E290934A07DA
:1036E00080934D0787E090E00E94BD1F90934607AE
:1036F00080934507009709F451C017E0FC01212F82
:1037000011922A95E9F788E690E00E94BD1F9093F8
:103710003D0780933C07009709F440C028E6DC0190
:103720001D922A95E9F780E590E00E94BD1F9093D5
:10373000400780933F07009789F120E5FC01119233
:103740002A95E9F780EA90E00E94BD1F9093430715
:1037500080934207009711F120EADC011D922A951F
:10376000E9F787E090E00E94BD1F90934C0780939B
:103770004B07009799F0FC0111921A95E9F780E444
:1037800090E00E94BD1F90934907809348070097DF
:1037900029F020E4DC011D922A95E9F710E000E011
:1037A000C801880F991FFC01E553F94F7F01808103
:1037B0009181892B49F481E090E00E94BD1FD701DF
:1037C0008D939C93FC0110820F5F1F4F08331105EE
:1037D00039F700913C0710913D07EBE8F6E090E0E7
:1037E00080E021913191232B39F4DF011297980168
:1037F000280F391F2D933C9302968034910589F749
:10380000D12CC12CC601880F991F9C01255E394F10
:103810007901D9018D919C91892B49F481E090E047
:103820000E94BD1FF70191838083DC011C92BFEFD2
:10383000CB1ADB0AE8E3CE16D10421F72091480722
:1038400030914907EBEDF5E090E080E04191519136
:10385000452B39F4DF011297A901480F591F4D93E9
:103860005C9302968034910589F7E3EBF5E090E0F4
:1038700080E0005C1F4F21913191232B39F4DF014F
:1038800012979801280F391F2D933C930296883286
:10389000910589F740913F0750914007EBE8F5E02B
:1038A00090E080E021913191232B59F4DF011297B0
:1038B0009C01220F331F220F331F240F351F2D931E
:1038C0003C9301968431910569F7409142075091EC
:1038D0004307E3E6F5E090E080E021913191232B6E
:1038E00061F4DF0112979C0163E0220F331F6A9598
:1038F000E1F7240F351F2D933C93019684319105F8
:1039000061F748EEA42E53E0B52EC12CD12CE12C4A
:10391000F12C00E010E0272D382D492D5B816C81C2
:10392000762D852D942D0E94091F209361073093D9
:10393000620740936307509364070E949A02609362
:1039400065077093660780936707909368079924CB
:1039500093940E949A020091650710916607209146
:10396000670730916807601B710B820B930B009106
:103970006107109162072091630730916407601717
:1039800071078207930708F4C7C00E94B4071A8220
:10399000198280915E0790915F0729813A812817EB
:1039A0003907D8F5E0915C07F0915D07C901880FF0
:1039B000991F880F991FE80FF91F208131814281DB
:1039C0005381211531054105510571F0609158076A
:1039D0007091590780915A0790915B070E94CE1E03
:1039E000672B682B692B99F4E0915607F0915707E4
:1039F00089819A81880F991FE80FF91F8081918131
:103A0000DC01ED91FC910480F581E02D1995E981AF
:103A1000FA813196FA83E983BCCF8091580790915F
:103A20005907A0915A07B0915B070196A11DB11DDE
:103A30008093580790935907A0935A07B0935B0758
:103A400020914E0730914F074091500750915107F8
:103A500060915207709153078091540790915507D8
:103A6000A0900002B0900102C0900202D090030228
:103A7000E0900402F0900502009106021091070206
:103A80000E949C1F20934E0730934F07409350078E
:103A900050935107609352077093530780935407D4
:103AA000909355070E94AC0980916007811118C05E
:103AB000909260070E949A0200916107109162073C
:103AC0002091630730916407601B710B820B930B8D
:103AD0006093650770936607809367079093680704
:103AE0008091650790916607A0916707B09168077C
:103AF000409161075091620760916307709164077C
:103B0000840F951FA61FB71F8093650790936607C4
:103B1000A0936707B09368070E949A020091650717
:103B2000109166072091670730916807601B710B41
:103B3000820B930B603177428105910510F00E9452
:103B4000AC0988950E94C80304CF0E94B91D0C944B
:103B50006B1E0E94641E58F00E945D1E40F029F406
:103B60005F3F29F00C94541E51110C949F1E0C942D
:103B70005A1E0E947C1E68F39923B1F3552391F3DA
:103B8000951B550BBB27AA2762177307840738F0CC
:103B90009F5F5F4F220F331F441FAA1FA9F335D029
:103BA0000E2E3AF0E0E832D091505040E695001CDD
:103BB000CAF72BD0FE2F29D0660F771F881FBB1F97
:103BC000261737074807AB07B0E809F0BB0B802D75
:103BD000BF01FF2793585F4F3AF09E3F510578F0A1
:103BE0000C94541E0C949F1E5F3FE4F3983ED4F354
:103BF000869577956795B795F7959F5FC9F7880F75
:103C0000911D9695879597F90895E1E0660F771FC6
:103C1000881FBB1F621773078407BA0720F0621B57
:103C2000730B840BBA0BEE1F88F7E0950895E894A8
:103C300009C097FB3EF490958095709561957F4FF4
:103C40008F4F9F4F9923A9F0F92F96E9BB279395A2
:103C5000F695879577956795B795F111F8CFFAF4B2
:103C6000BB0F11F460FF1BC06F5F7F4F8F4F9F4FE3
:103C700016C0882311F096E911C0772321F09EE841
:103C8000872F762F05C0662371F096E8862F70E0A7
:103C900060E02AF09A95660F771F881FDAF7880F81
:103CA0009695879597F9089597F99F6780E870E052
:103CB00060E008959FEF80EC089500240A941616A2
:103CC000170618060906089500240A94121613060A
:103CD000140605060895092E0394000C11F4882398
:103CE00052F0BB0F40F4BF2B11F460FF04C06F5FB4
:103CF0007F4F8F4F9F4F089557FD9058440F551F8A
:103D000059F05F3F71F04795880F97FB991F61F05D
:103D10009F3F79F087950895121613061406551FD4
:103D2000F2CF4695F1DF08C0161617061806991F40
:103D3000F1CF86957105610508940895E894BB2735
:103D400066277727CB0197F908950E94AA1E08F4E9
:103D50008FEF0895990F0008550FAA0BE0E8FEEFCA
:103D600016161706E807F907C0F012161306E4073F
:103D7000F50798F0621B730B840B950B39F40A2638
:103D800061F0232B242B252B21F408950A2609F416
:103D9000A140A6958FEF811D811D0895A1E21A2EE5
:103DA000AA1BBB1BFD010DC0AA1FBB1FEE1FFF1FDF
:103DB000A217B307E407F50720F0A21BB30BE40B2F
:103DC000F50B661F771F881F991F1A9469F7609576
:103DD0007095809590959B01AC01BD01CF01089530
:103DE000EE0FFF1F881F8BBF0790F691E02D1994EF
:103DF000A29FB001B39FC001A39F700D811D11242C
:103E0000911DB29F700D811D1124911D089568941C
:103E100001C0E8948F929F92CF93DF930E94151F69
:103E2000DF91CF919F908F90089588249924F40179
:103E3000E401B0E49F93AA279A158B049C04ED0536
:103E4000FE05CF05D007A10798F4AD2FDC2FCF2FAB
:103E5000FE2FE92D982C892E982F872F762F652FEE
:103E6000542F432F322F2227B85031F7BF9127C04C
:103E70001B2EBF91BB27220F331F441F551F661FE8
:103E8000771F881F991F881C991CEE1FFF1FCC1FCE
:103E9000DD1FAA1FBB1F8A149B04EC05FD05CE0580
:103EA000DF05A007B10748F08A189B08EC09FD0957
:103EB000CE09DF09A00BB10B21601A94E1F62EF4B4
:103EC0009401AF01BE01CD01000C0895002E083011
:103ED00090F0982F872F762F652F542F432F322F56
:103EE00022270850F4CF220F331F441F551F661F8F
:103EF000771F881F991F0A95B2F7002D089597FD27
:103F00001094002E083098F00850232F342F452F9E
:103F1000562F672F782F892F912DF4CF15949795D1
:103F200087957795679557954795379527950A957E
:103F3000AAF71124002D08952A0D3B1D4C1D5D1D6F
:103F40006E1D7F1D801F911F08950024A7FD009402
:103F50002A0F301D401D501D601D701D801D901DBD
:103F600008950024A7FD00942A1730054005500548
:103F7000600570058005900508950F931F93CF93FA
:103F8000DF938230910510F482E090E0E0919A098D
:103F9000F0919B0930E020E0B0E0A0E0309799F488
:103FA0002115310509F44AC0281B390B243031058D
:103FB000D8F58A819B816115710589F1FB01938395
:103FC0008283FE0111C04081518102811381481713
:103FD0005907E0F04817590799F4109761F01296C5
:103FE0000C93129713961C933296CF01DF91CF91C9
:103FF0001F910F91089500939A0910939B09F4CF94
:104000002115310551F04217530738F0A901DB01A2
:104010009A01BD01DF01F801C1CFEF01F9CF909303
:104020009B0980939A09CDCFFE01E20FF31F819384
:1040300091932250310939832883D7CF2091980951
:1040400030919909232B41F42091140230911502EB
:10405000309399092093980920911202309113020C
:104060002115310541F42DB73EB74091160250910C
:104070001702241B350BE0919809F0919909E2177A
:10408000F307A0F42E1B3F0B2817390778F0AC017B
:104090004E5F5F4F2417350748F04E0F5F1F509358
:1040A000990940939809819391939FCFF0E0E0E0C4
:1040B0009CCFCF93DF930097E9F0FC0132971382F6
:1040C0001282A0919A09B0919B09ED0130E020E0A5
:1040D0001097A1F420813181820F931F20919809BC
:1040E000309199092817390709F061C0F0939909AF
:1040F000E0939809DF91CF910895EA01CE17DF0789
:10410000E8F54A815B819E0141155105B1F7E9014E
:10411000FB83EA8349915991C40FD51FEC17FD0722
:1041200061F4808191810296840F951FE901998342
:104130008883828193819B838A83F0E0E0E01296FA
:104140008D919C9113970097B9F52D913C91119702
:10415000CD010296820F931F209198093091990901
:104160002817390739F6309751F510929B091092AC
:104170009A09B0939909A0939809BCCFD383C283BD
:1041800040815181840F951FC817D90761F44E5F94
:104190005F4F88819981480F591F518340838A81DD
:1041A0009B81938382832115310509F0B0CFF09371
:1041B0009B09E0939A099ECFFD01DC01C0CF1382D9
:1041C0001282D7CFFB01DC0102C001900D92415059
:1041D0005040D8F70895DC0101C06D934150504024
:1041E000E0F70895F894FFCF002D310100000000A2
:1041F0000202000000000000000000009C09800096
:1042000000C0C101C30302C2C60607C705C5C40476
:10421000CC0C0DCD0FCFCE0E0ACACB0BC90908C8E6
:10422000D81819D91BDBDA1A1EDEDF1FDD1D1CDCD6
:1042300014D4D515D71716D6D21213D311D1D01046
:10424000F03031F133F3F23236F6F737F53534F436
:104250003CFCFD3DFF3F3EFEFA3A3BFB39F9F838A6
:1042600028E8E929EB2B2AEAEE2E2FEF2DEDEC2C96
:10427000E42425E527E7E62622E2E323E12120E006
:10428000A06061A163A3A26266A6A767A56564A4F6
:104290006CACAD6DAF6F6EAEAA6A6BAB69A9A86866
:1042A00078B8B979BB7B7ABABE7E7FBF7DBDBC7C56
:1042B000B47475B577B7B67672B2B373B17170B0C6
:1042C00050909151935352929656579755959454B6
:1042D0009C5C5D9D5F9F9E5E5A9A9B5B9959589826
:1042E000884849894B8B8A4A4E8E8F4F8D4D4C8C16
:1042F0004484854587474686824243834181804086
:1043000000C1814001C0804101C0804100C18140A5
:1043100001C0804100C1814000C1814001C0804195
:1043200001C0804100C1814000C1814001C0804185
:1043300000C1814001C0804101C0804100C1814075
:1043400001C0804100C1814000C1814001C0804165
:1043500000C1814001C0804101C0804100C1814055
:1043600000C1814001C0804101C0804100C1814045
:1043700001C0804100C1814000C1814001C0804135
:1043800001C0804100C1814000C1814001C0804125
:1043900000C1814001C0804101C0804100C1814015
:1043A00000C1814001C0804101C0804100C1814005
:1043B00001C0804100C1814000C1814001C08041F5
:1043C00000C1814001C0804101C0804100C18140E5
:1043D00001C0804100C1814000C1814001C08041D5
:1043E00001C0804100C1814000C1814001C08041C5
:1043F00000C1814001C0804101C0804100C18140B5
:104400003A097706AB072D09019B0698068E0685AB
:1044100006017D067A066D06640601590630064CD3
:104420000641060236063306230618060203064F27
:1044300004F005E10504CC05C905B605A705047D12
:1044400005FE0451052E050804050105D204AF043C
:10445000089A04970484046A0404550452043C0432
:104460002204047D067A066D0664060136063306CC
:104470002306180602CC05C905B605A705040405E0
:104480000105D204AF04087D05FE0451052E050880
:104490007D05FE0451052E05087D05FE0451052EFF
:1044A00005087D05FE0451052E0508F61428093F70
:1044B00015B4147F6C0868085D14CB08FD0000007B
:1044C000005B03C502F202A80323030103150300E6
:1044D000000000F903AE14AB060A04070406040644
:1044E00004FB0300000000FA03B0144B070A0407A2
:1044F0000406040604FB03000000000D04B2140EC1
:1045000004C202BF02434F4E46494730003166386D
:10451000333865613435636632633063643236350F
:1045200064643661346462623562306434005441DC
:0E453000534B30005245533000504C430000B6
:020000040003F7
:10E000000D9489F10D94B2F10D94B2F10D94B2F129
:10E010000D94B2F10D94B2F10D94B2F10D94B2F1F0
:10E020000D94B2F10D94B2F10D94B2F10D94B2F1E0
:10E030000D94B2F10D94B2F10D94B2F10D94B2F1D0
:10E040000D94B2F10D94B2F10D94B2F10D94B2F1C0
:10E050000D94B2F10D94B2F10D94B2F10D94B2F1B0
:10E060000D94B2F10D94B2F10D94B2F10D94B2F1A0
:10E070000D94B2F10D94B2F10D94B2F10D94B2F190
:10E080000D94B2F10D94B2F10D94B2F10D94B2F180
:10E090000D94B2F10D94B2F10D94B2F10D94B2F170
:10E0A0000D94B2F10D94B2F10D94B2F10D94B2F160
:10E0B0000D94B2F10D94B2F10D94B2F10D94B2F150
:10E0C0000D94B2F10D94B2F10D94B2F10D94B2F140
:10E0D0000D94B2F10D94B2F10D94B2F10D94B2F130
:10E0E0000D94B2F141546D656761323536300041AF
:10E0F000726475696E6F206578706C6F72657220DE
:10E1000073746B3530305632206279204D4C530099
:10E11000426F6F746C6F616465723E004875683F52
:10E1200000436F6D70696C6564206F6E203D200048
:10E130004350552054797065202020203D20005FF9
:10E140005F4156525F415243485F5F3D2000415658
:10E1500052204C696243205665723D20004743437C
:10E160002056657273696F6E203D20004350552024
:10E1700049442020202020203D20004C6F7720663D
:10E18000757365202020203D20004869676820665F
:10E190007573652020203D200045787420667573D6
:10E1A00065202020203D20004C6F636B2066757336
:10E1B000652020203D20004D617220203720323024
:10E1C000313300312E362E3800342E332E350056A2
:10E1D00023202020414444522020206F7020636F70
:10E1E00064652020202020696E73747275637469E1
:10E1F0006F6E2061646472202020496E74657272B3
:10E20000757074006E6F20766563746F7200726A49
:10E210006D702020006A6D70200057686174207056
:10E220006F72743A00506F7274206E6F7420737541
:10E2300070706F72746564004D7573742062652030
:10E2400061206C6574746572002000577269747483
:10E25000696E672045450052656164696E672045B7
:10E26000450045452065727220636E743D00504F35
:10E27000525400303D5A65726F2061646472003FF1
:10E280003D43505520737461747300403D454550C3
:10E29000524F4D207465737400423D426C696E6B41
:10E2A000204C454400453D44756D70204545505215
:10E2B0004F4D00463D44756D7020464C415348001B
:10E2C000483D48656C70004C3D4C69737420492F83
:10E2D0004F20506F72747300513D51756974005234
:10E2E0003D44756D702052414D00563D73686F7707
:10E2F00020696E7465727275707420566563746FF0
:10E30000727300593D506F727420626C696E6B00BD
:10E310002A0011241FBECFEFD1E2DEBFCDBF01E046
:10E320000CBF12E0A0E0B2E0EEE1FDEF03E00BBFB6
:10E3300002C007900D92A030B107D9F712E0A0E01B
:10E34000B2E001C01D92AE30B107E1F70F9460F367
:10E350000D948DFE01E20EBF0FEF0DBF11241FBE05
:10E360000D9460F30D9400F020E030E040ED57E0B4
:10E3700005C0FA013197F1F72F5F3F4F2817390792
:10E38000C0F308959C01260F311DC901A0E0B0E043
:10E390002F5F3F4FABBFFC018791882361F08093D3
:10E3A000C6008091C00086FFFCCF8091C0008064D1
:10E3B0008093C000EACF08958DE08093C6008091DD
:10E3C000C00086FFFCCF8091C00080648093C000B5
:10E3D0008AE08093C6008091C00086FFFCCF8091C8
:10E3E000C00080648093C00008950F94C2F10F9420
:10E3F000DCF10895FC019081992359F09093C600B7
:10E400008091C00086FFFCCF8091C0008064809323
:10E41000C0003196992379F70895282F982F929567
:10E420009F70892F805D8A3308F0895F8093C600D2
:10E430008091C00086FFFCCF8091C00080648093F3
:10E44000C000822F8F70982F905D9A3308F0995FEB
:10E450009093C6008091C00086FFFCCF8091C000E1
:10E4600080648093C00008959C01FB01853691056E
:10E470001CF46330710594F0C90164E670E00F94F8
:10E480002EFE605D7F4F6093C6008091C00086FFC6
:10E49000FCCF8091C00080648093C0002B30310598
:10E4A00014F43297B4F0C90164E670E00F942EFEC4
:10E4B0006AE070E00F942EFE605D7F4F6093C600AF
:10E4C0008091C00086FFFCCF8091C0008064809363
:10E4D000C000C9016AE070E00F942EFEC0968093E0
:10E4E000C6008091C00086FFFCCF8091C000806490
:10E4F0008093C00008951F93182F8EE692EE60E07F
:10E500000F94C2F11093C6008091C00086FFFCCF2B
:10E510008091C00080648093C0000F94DCF11F9153
:10E5200008952F923F924F925F926F927F928F92B7
:10E530009F92AF92BF92CF92DF92EF92FF920F9392
:10E540001F93DF93CF93CDB7DEB762970FB6F894E2
:10E55000DEBF0FBECDBF382E622ECA01DB015C01CB
:10E560006D01772420E2222E2E010894411C511CBB
:10E570008BC081E0A81680E0B80681E0C80680E084
:10E58000D80628F0C601AA27BB270F940DF2BB2797
:10E59000AD2D9C2D8B2D0F940DF28A2D0F940DF225
:10E5A0002092C6008091C00086FFFCCF8091C00001
:10E5B00080648093C0009DE29093C6008091C0006B
:10E5C00086FFFCCF8091C00080648093C0002092C1
:10E5D000C6008091C00086FFFCCF8091C00080649F
:10E5E0008093C00019828601750188249924A1E0D6
:10E5F0003A1651F03A1620F0B2E03B1661F409C029
:10E600000BBFF701779007C0C7010F9477FE782EF4
:10E6100002C0F7017080872D0F940DF22092C60082
:10E620008091C00086FFFCCF8091C0008064809301
:10E63000C000872D8052F401EF70F0708F3520F408
:10E64000E40DF51D708204C0E40DF51D8EE280839B
:10E650000894E11CF11C011D111D0894811C911CE2
:10E6600090E18916910409F0C2CF80E190E0A0E02A
:10E67000B0E0A80EB91ECA1EDB1E198AC2010F9493
:10E68000FAF10F94DCF16A94662009F072CF629679
:10E690000FB6F894DEBF0FBECDBFCF91DF911F91B3
:10E6A0000F91FF90EF90DF90CF90BF90AF909F9031
:10E6B0008F907F906F905F904F903F902F90089534
:10E6C0002F923F924F925F926F927F928F929F9282
:10E6D000AF92BF92CF92DF92EF92FF920F931F9370
:10E6E000DF93CF93CDB7DEB7CD53D1400FB6F894BB
:10E6F000DEBF0FBECDBF01E20EBF0FEF0DBF94B75F
:10E70000F894A89514BE80916000886180936000A1
:10E7100010926000789493FF05C0E0910002F091A0
:10E7200001021995279A2F9A8091C00082608093E8
:10E73000C00080E18093C40088E18093C1000000A4
:10E74000EE24FF24870144E0A42EB12CCC24DD2448
:10E7500024C0C5010197F1F70894E11CF11C011DCB
:10E76000111D21E2E2162EE4F20620E0020720E06D
:10E77000120718F031E0C32ED12CC801B70127ECE5
:10E780003BE140E050E00F9441FE611571058105C9
:10E79000910519F485B1805885B98091C00087FD35
:10E7A00003C0C114D104A9F2A6014F5F5F4FC25E3E
:10E7B000DE4F59834883CE51D140C25EDE4F8881FF
:10E7C0009981CE51D140019711F00D9410FEC05D9A
:10E7D000DE4F19821882C053D14060E0C15DDE4F28
:10E7E0001882CF52D14088249924C35DDE4F19820C
:10E7F0001882CD52D140C05EDE4F188219821A8233
:10E800001B82C052D140CE5CDE4F188219821A8220
:10E810001B82C253D140EE24FF2487010BBFF701B6
:10E8200007911691C45CDE4F19830883CC53D14005
:10E830000D940BFEC25EDE4F28813981CE51D1404E
:10E840002130310509F52091C600C25EDE4F1982E4
:10E850001882CE51D14022C02F5F3F4F4F4F5F4FA4
:10E86000213082E138078AE7480780E0580780F0C6
:10E87000C45CDE4FE881F981CC53D140EF5FFF4F9C
:10E8800019F0EE27FF27099420E030E040E050E047
:10E890008091C00087FFE0CF2091C600C35DDE4FAE
:10E8A00048815981CD52D1404F5F5F4FC35DDE4FEC
:10E8B00059834883CD52D140213209F063C64A3092
:10E8C000510508F05FC60894811C911C53E0851621
:10E8D000910409F059C600E010E018C081E280936D
:10E8E000C6008091C00086FFFCCF8091C00080648C
:10E8F0008093C0002F5F3F4F2931310579F70F9486
:10E90000DCF10F5F1F4F0530110519F020E030E0FA
:10E91000E5CF10920A0210920B0210920C02109294
:10E920000D02109206021092070210920802109235
:10E930000902109202021092030210920402109235
:10E9400005028FEE90EE60E00F94F5F180E191EE1C
:10E9500060E00F94C2F18091C00087FFFCCF9091DE
:10E96000C600903608F09F759032B8F09093C600BC
:10E970008091C00086FFFCCF8091C00080648093AE
:10E98000C000A0E2A093C6008091C00086FFFCCF2B
:10E990008091C00080648093C000983409F4D7C18E
:10E9A0009934B8F4923409F459C1933458F490333B
:10E9B00019F1903308F4E3C59F33A1F1903409F0C5
:10E9C000DEC5BDC0953409F470C1963409F0D7C5D1
:10E9D00098C1923509F42BC2933538F49C3409F46C
:10E9E000F5C1913509F0CBC518C2963509F445C279
:10E9F000993509F0C4C567C483E792EE62E00F94CD
:10EA0000F5F110920602109207021092080210927D
:10EA1000090210920A0210920B0210920C0210923C
:10EA20000D0213C18FE792EE62E00F94F5F18FEEC5
:10EA300090EE60E00F94F5F181E291EE60E00F94CA
:10EA4000C2F187EB91EE60E00F94F5F180E391EE77
:10EA500060E00F94C2F184EE90EE60E00F94F5F167
:10EA60008FE391EE60E00F94C2F186E090E061E008
:10EA700070E00F9434F20F94DCF18DE591EE60E0DC
:10EA80000F94C2F189EC91EE60E00F94F5F18EE401
:10EA900091EE60E00F94C2F183EC91EE60E00F9490
:10EAA000F5F18CE691EE60E00F94C2F18EE10F94E7
:10EAB0000DF288E90F940DF281E00F940DF20F949E
:10EAC000DCF18BE791EE60E00F94C2F119E0E0E039
:10EAD000F0E010935700E4918E2F0F940DF20F94F5
:10EAE000DCF18AE891EE60E00F94C2F1E3E0F0E03F
:10EAF00010935700E4918E2F0F940DF20F94DCF1D8
:10EB000089E991EE60E00F94C2F1E2E0F0E0109349
:10EB10005700E4918E2F0F940DF20F94DCF188EAE8
:10EB200091EE60E00F94C2F1E1E0F0E01093570045
:10EB30001491812F0F940DF20F94DCF107CF8BE825
:10EB400092EE62E00F94F5F18BE492EE60E00F94A8
:10EB5000F5F10F94DCF100E010E019C0C8016F2D51
:10EB60000F947FFEFF2031F489E492EE60E00F9471
:10EB7000C2F10BC0F092C6008091C00086FFFCCFAE
:10EB80008091C00080648093C0000F5F1F4FC80158
:10EB900081519F41A0E0B0E0ABBFFC01F790BAE229
:10EBA000FB1621F0E2E000301E07C1F60F94DCF105
:10EBB0000F94DCF187E592EE60E00F94F5F10F948D
:10EBC000DCF1CC24DD2400E010E01EC0C8010F946D
:10EBD00077FEF82E882331F489E492EE60E00F94FA
:10EBE000C2F10BC08093C6008091C00086FFFCCFAD
:10EBF0008091C00080648093C000FE1419F00894D6
:10EC0000C11CD11C0F5F1F4FC80181519F41A0E063
:10EC1000B0E0ABBFFC01E790FAE2EF1621F022E092
:10EC20000030120799F60F94DCF10F94DCF182E6C4
:10EC300092EE60E00F94C2F1C60161E070E00F94C3
:10EC400034F20F94DCF10F94DCF110920202109276
:10EC50000302109204021092050278CE89E992EE26
:10EC600062E00F94F5F1279A2F9A16C02F9880E052
:10EC700090E0E0EDF7E03197F1F7019684369105E9
:10EC8000C1F72F9A80E090E0E0EDF7E03197F1F7DF
:10EC9000019684369105C1F78091C00087FFE6CFC9
:10ECA0008091C00087FFFCCF64C485EA92EE62E0E9
:10ECB0000F94F5F140910202509103026091040219
:10ECC0007091050281E020E10F9491F2809102029F
:10ECD00090910302A0910402B091050280509F4FD1
:10ECE000AF4FBF4F8093020290930302A0930402A0
:10ECF000B093050280509041A040B04008F426CE69
:10ED0000A4CF83EB92EE62E00F94F5F140910602FE
:10ED100050910702609108027091090280E020E1A1
:10ED20000F9491F28091060290910702A09108023F
:10ED3000B091090280509F4FAF4FBF4F80930602A2
:10ED400090930702A0930802B0930902FFCD80ECD4
:10ED500092EE62E00F94F5F183E792EE60E00F949B
:10ED6000F5F18FE792EE60E00F94F5F18BE892EE0B
:10ED700060E00F94F5F189E992EE60E00F94F5F10F
:10ED800085EA92EE60E00F94F5F183EB92EE60E09D
:10ED90000F94F5F180EC92EE60E00F94F5F187ECC2
:10EDA00092EE60E00F94F5F188ED92EE60E00F9442
:10EDB000F5F18FED92EE60E00F94F5F18AEE92EEB0
:10EDC00060E00F94F5F183E093EEBDCD87EC92EE19
:10EDD00062E00F94F5F181E40F947BF282E40F94EA
:10EDE0007BF283E40F947BF284E40F947BF285E45E
:10EDF0000F947BF286E40F947BF287E40F947BF20E
:10EE000088E40F947BF28AE40F947BF28BE40F94F6
:10EE10007BF28CE40F947BF299CD88ED92EE62E068
:10EE20000F94F5F1772473948824992409C48FED05
:10EE300092EE62E00F94F5F140910A0250910B02BC
:10EE400060910C0270910D0282E020E10F9491F22A
:10EE500080910A0290910B02A0910C02B0910D02D8
:10EE600080509F4FAF4FBF4F80930A0290930B0289
:10EE7000A0930C02B0930D0269CD8AEE92EE62E08F
:10EE80000F94F5F184EE90EE60E00F94F5F18FECC5
:10EE900091EE60E00F94F5F1662477244301CC5D98
:10EEA000DE4F19821882C452D140D401C301B695F5
:10EEB000A79597958795CA5DDE4F88839983AA8326
:10EEC000BB83C652D140CC5DDE4FA881B981C4520C
:10EED000D1401196CC5DDE4FB983A883C452D14096
:10EEE000CD0162E070E00F9434F2B0E2B093C6005E
:10EEF0008091C00086FFFCCF8091C0008064809329
:10EF0000C000EDE2E093C6008091C00086FFFCCF18
:10EF10008091C00080648093C000F0E2F093C6004E
:10EF20008091C00086FFFCCF8091C00080648093F8
:10EF3000C000CA5DDE4FE880F9800A811B81C6529D
:10EF4000D140BB27A12F902F8F2D0F940DF2CA5DBA
:10EF5000DE4F8881C652D1400F940DF2B0E2FB2EF5
:10EF6000F092C6008091C00086FFFCCF8091C00067
:10EF700080648093C0000DE30093C6008091C000C0
:10EF800086FFFCCF8091C00080648093C00010E2B7
:10EF90001093C6008091C00086FFFCCF8091C00016
:10EFA00080648093C0008BBEF3012791C65DDE4F65
:10EFB0002883CA52D140A22EBB24CC24DD2408943D
:10EFC000611C711C811C911C8BBEF3018791282E42
:10EFD0003324442455240894611C711C811C911C09
:10EFE0008BBEF3013791C55DDE4F3883CB52D140E4
:10EFF0000894611C711C811C911C8BBEF30147910C
:10F00000C45DDE4F4883CC52D140ADEFEA2EAFEF66
:10F01000FA2EAFEF0A2FAFEF1A2F6E0C7F1C801E57
:10F02000911E142D032DF22CEE24EA0CFB1C0C1D5A
:10F030001D1D0F940DF220E22093C6008091C000A8
:10F0400086FFFCCF8091C00080648093C000C65DC5
:10F05000DE4F8881CA52D1400F940DF230E23093D6
:10F06000C6008091C00086FFFCCF8091C000806404
:10F070008093C000C45DDE4F8881CC52D1400F9494
:10F080000DF240E24093C6008091C00086FFFCCFA5
:10F090008091C00080648093C000C55DDE4F888190
:10F0A000CB52D1400F940DF250E25093C6008091A4
:10F0B000C00086FFFCCF8091C00080648093C000B8
:10F0C0008FEFE8168FEFF80680E0080780E018075A
:10F0D00031F484E092EE60E00F94C2F1DFC0D80119
:10F0E000C7018070907CA070B0708050904CA040A0
:10F0F000B040D1F52FEF3FE340E050E0E222F322B1
:10F1000004231523CA5DDE4FA880B980CA80DB8046
:10F11000C652D140AE0CBF1CC01ED11EAA0CBB1CD7
:10F12000CC1CDD1C8EE092EE60E00F94C2F1BB2798
:10F13000A12F902F8F2D0F940DF28E2D0F940DF285
:10F1400030E23093C6008091C00086FFFCCF8091F2
:10F15000C00080648093C0004EE34093C60080915D
:10F16000C00086FFFCCF87C08EE09EEFA0E0B0E03D
:10F17000E822F9220A231B239CE0E91694E9F90608
:10F1800090E0090790E0190709F088C0C45DDE4FE0
:10F19000A881CC52D140EA2EFF2400E010E0102FCD
:10F1A0000F2DFE2CEE24C55DDE4FB881CB52D14031
:10F1B000EB0EF11C011D111DD601C501817090706F
:10F1C000A070B070DC0199278827E80EF91E0A1F8D
:10F1D0001B1F20EF30E040E050E0A222B322C42207
:10F1E000D52241E1AA0CBB1CCC1CDD1C4A95D1F7F1
:10F1F000EA0CFB1C0C1D1D1D81E090E0A0E0B0E0BE
:10F20000282239224A225B2235E1220C331C441C7D
:10F21000551C3A95D1F7E20CF31C041D151D57013E
:10F220006801AA0CBB1CCC1CDD1C85E192EE60E0E1
:10F230000F94C2F1C801AA27BB270F940DF2BB2778
:10F24000A12F902F8F2D0F940DF28E2D0F940DF274
:10F2500090E29093C6008091C00086FFFCCF809121
:10F26000C00080648093C000AEE3A093C60080918C
:10F27000C00086FFFCCF8091C00080648093C000F6
:10F28000C601AA27BB270F940DF2BB27AD2D9C2DDD
:10F290008B2D0F940DF28A2D0F940DF20F94DCF14B
:10F2A000CC5DDE4FE881F981C452D140F99709F471
:10F2B0004DCBF4E0EF2EF12C012D112D6E0C7F1CA7
:10F2C000801E911EF2CD83E093EE62E00F94F5F183
:10F2D0008AE192EE60E00F94C2F18091C00087FF56
:10F2E000FCCF1091C6001F751093C6008091C0001E
:10F2F00086FFFCCF8091C00080648093C0000F9493
:10F30000DCF1812F81548A3108F036C1163409F4BA
:10F3100095C0173490F4133409F44EC0143430F40B
:10F320001134F1F0123409F01DC130C0143409F465
:10F3300059C0153409F016C16BC01A3409F4C4C0A1
:10F340001B3438F4173409F48FC0183409F00AC19B
:10F35000A1C01B3409F4D2C01C3409F003C1E8C0B9
:10F360008FEF81B90DC082B1809582B980E090E0C5
:10F37000E0EDF7E03197F1F70196883C9105C1F790
:10F380008091C00087FFEFCF12B8EFC08FEF84B934
:10F390000DC085B1809585B980E090E0E0EDF7E0A3
:10F3A0003197F1F70196883C9105C1F78091C00033
:10F3B00087FFEFCF15B8D9C08FEF87B90DC088B1DF
:10F3C000809588B980E090E0E0EDF7E03197F1F7C3
:10F3D0000196883C9105C1F78091C00087FFEFCF6F
:10F3E00018B8C3C08FEF8AB90DC08BB180958BB9A7
:10F3F00080E090E0E0EDF7E03197F1F70196883C8E
:10F400009105C1F78091C00087FFEFCF1BB8ADC059
:10F410008FEF8DB90DC08EB180958EB980E090E0F0
:10F42000E0EDF7E03197F1F70196883C9105C1F7DF
:10F430008091C00087FFEFCF1EB897C08FEF80BBD1
:10F440000DC081B3809581BB80E090E0E0EDF7E0F6
:10F450003197F1F70196883C9105C1F78091C00082
:10F4600087FFEFCF11BA81C08FEF83BB0DC084B38C
:10F47000809584BB80E090E0E0EDF7E03197F1F714
:10F480000196883C9105C1F78091C00087FFEFCFBE
:10F4900014BA6BC08FEF809301010FC080910201FD
:10F4A00080958093020180E090E0E0EDF7E03197F5
:10F4B000F1F70196883C9105C1F78091C00087FF64
:10F4C000EDCF1092020151C08FEF809304010FC065
:10F4D0008091050180958093050180E090E0E0ED4A
:10F4E000F7E03197F1F70196883C9105C1F78091DB
:10F4F000C00087FFEDCF1092050137C08FEF8093DA
:10F5000007010FC08091080180958093080180E079
:10F5100090E0E0EDF7E03197F1F70196883C910536
:10F52000C1F78091C00087FFEDCF109208011DC088
:10F530008FEF80930A010FC080910B01809580931B
:10F540000B0180E090E0E0EDF7E03197F1F70196F4
:10F55000883C9105C1F78091C00087FFEDCF1092E4
:10F560000B0103C085E292EEEEC98091C00087FFD7
:10F57000FCCF8091C600EAC988E392EEE4C98CE131
:10F5800091EEE1C988249924933011F1943028F444
